{
  "address": "0x622d4165F14F19C0467783421898279055153794",
  "abi": [
    {
      "inputs": [],
      "stateMutability": "nonpayable",
      "type": "constructor"
    },
    {
      "inputs": [
        {
          "internalType": "address",
          "name": "sender",
          "type": "address"
        },
        {
          "internalType": "uint256",
          "name": "tokenId",
          "type": "uint256"
        },
        {
          "internalType": "address",
          "name": "owner",
          "type": "address"
        }
      ],
      "name": "ERC721IncorrectOwner",
      "type": "error"
    },
    {
      "inputs": [
        {
          "internalType": "address",
          "name": "operator",
          "type": "address"
        },
        {
          "internalType": "uint256",
          "name": "tokenId",
          "type": "uint256"
        }
      ],
      "name": "ERC721InsufficientApproval",
      "type": "error"
    },
    {
      "inputs": [
        {
          "internalType": "address",
          "name": "approver",
          "type": "address"
        }
      ],
      "name": "ERC721InvalidApprover",
      "type": "error"
    },
    {
      "inputs": [
        {
          "internalType": "address",
          "name": "operator",
          "type": "address"
        }
      ],
      "name": "ERC721InvalidOperator",
      "type": "error"
    },
    {
      "inputs": [
        {
          "internalType": "address",
          "name": "owner",
          "type": "address"
        }
      ],
      "name": "ERC721InvalidOwner",
      "type": "error"
    },
    {
      "inputs": [
        {
          "internalType": "address",
          "name": "receiver",
          "type": "address"
        }
      ],
      "name": "ERC721InvalidReceiver",
      "type": "error"
    },
    {
      "inputs": [
        {
          "internalType": "address",
          "name": "sender",
          "type": "address"
        }
      ],
      "name": "ERC721InvalidSender",
      "type": "error"
    },
    {
      "inputs": [
        {
          "internalType": "uint256",
          "name": "tokenId",
          "type": "uint256"
        }
      ],
      "name": "ERC721NonexistentToken",
      "type": "error"
    },
    {
      "inputs": [
        {
          "internalType": "address",
          "name": "owner",
          "type": "address"
        }
      ],
      "name": "OwnableInvalidOwner",
      "type": "error"
    },
    {
      "inputs": [
        {
          "internalType": "address",
          "name": "account",
          "type": "address"
        }
      ],
      "name": "OwnableUnauthorizedAccount",
      "type": "error"
    },
    {
      "inputs": [],
      "name": "ReentrancyGuardReentrantCall",
      "type": "error"
    },
    {
      "anonymous": false,
      "inputs": [
        {
          "indexed": true,
          "internalType": "uint256",
          "name": "tokenId",
          "type": "uint256"
        },
        {
          "indexed": false,
          "internalType": "uint256",
          "name": "newLevel",
          "type": "uint256"
        }
      ],
      "name": "AgentLevelUp",
      "type": "event"
    },
    {
      "anonymous": false,
      "inputs": [
        {
          "indexed": true,
          "internalType": "uint256",
          "name": "tokenId",
          "type": "uint256"
        },
        {
          "indexed": true,
          "internalType": "address",
          "name": "creator",
          "type": "address"
        },
        {
          "indexed": false,
          "internalType": "string",
          "name": "name",
          "type": "string"
        },
        {
          "indexed": false,
          "internalType": "string",
          "name": "personalityHash",
          "type": "string"
        }
      ],
      "name": "AgentMinted",
      "type": "event"
    },
    {
      "anonymous": false,
      "inputs": [
        {
          "indexed": true,
          "internalType": "uint256",
          "name": "tokenId",
          "type": "uint256"
        },
        {
          "indexed": false,
          "internalType": "bool",
          "name": "isPublic",
          "type": "bool"
        }
      ],
      "name": "AgentVisibilityChanged",
      "type": "event"
    },
    {
      "anonymous": false,
      "inputs": [
        {
          "indexed": true,
          "internalType": "address",
          "name": "owner",
          "type": "address"
        },
        {
          "indexed": true,
          "internalType": "address",
          "name": "approved",
          "type": "address"
        },
        {
          "indexed": true,
          "internalType": "uint256",
          "name": "tokenId",
          "type": "uint256"
        }
      ],
      "name": "Approval",
      "type": "event"
    },
    {
      "anonymous": false,
      "inputs": [
        {
          "indexed": true,
          "internalType": "address",
          "name": "owner",
          "type": "address"
        },
        {
          "indexed": true,
          "internalType": "address",
          "name": "operator",
          "type": "address"
        },
        {
          "indexed": false,
          "internalType": "bool",
          "name": "approved",
          "type": "bool"
        }
      ],
      "name": "ApprovalForAll",
      "type": "event"
    },
    {
      "anonymous": false,
      "inputs": [
        {
          "indexed": false,
          "internalType": "uint256",
          "name": "_fromTokenId",
          "type": "uint256"
        },
        {
          "indexed": false,
          "internalType": "uint256",
          "name": "_toTokenId",
          "type": "uint256"
        }
      ],
      "name": "BatchMetadataUpdate",
      "type": "event"
    },
    {
      "anonymous": false,
      "inputs": [
        {
          "indexed": true,
          "internalType": "uint256",
          "name": "tokenId",
          "type": "uint256"
        },
        {
          "indexed": false,
          "internalType": "uint256",
          "name": "totalChats",
          "type": "uint256"
        }
      ],
      "name": "ChatRecorded",
      "type": "event"
    },
    {
      "anonymous": false,
      "inputs": [
        {
          "indexed": false,
          "internalType": "uint256",
          "name": "_tokenId",
          "type": "uint256"
        }
      ],
      "name": "MetadataUpdate",
      "type": "event"
    },
    {
      "anonymous": false,
      "inputs": [
        {
          "indexed": false,
          "internalType": "uint256",
          "name": "newFee",
          "type": "uint256"
        }
      ],
      "name": "MintingFeeUpdated",
      "type": "event"
    },
    {
      "anonymous": false,
      "inputs": [
        {
          "indexed": true,
          "internalType": "address",
          "name": "previousOwner",
          "type": "address"
        },
        {
          "indexed": true,
          "internalType": "address",
          "name": "newOwner",
          "type": "address"
        }
      ],
      "name": "OwnershipTransferred",
      "type": "event"
    },
    {
      "anonymous": false,
      "inputs": [
        {
          "indexed": true,
          "internalType": "address",
          "name": "from",
          "type": "address"
        },
        {
          "indexed": true,
          "internalType": "address",
          "name": "to",
          "type": "address"
        },
        {
          "indexed": true,
          "internalType": "uint256",
          "name": "tokenId",
          "type": "uint256"
        }
      ],
      "name": "Transfer",
      "type": "event"
    },
    {
      "inputs": [],
      "name": "MAX_LEADERBOARD_LIMIT",
      "outputs": [
        {
          "internalType": "uint256",
          "name": "",
          "type": "uint256"
        }
      ],
      "stateMutability": "view",
      "type": "function"
    },
    {
      "inputs": [
        {
          "internalType": "uint256",
          "name": "",
          "type": "uint256"
        }
      ],
      "name": "agentIsPublic",
      "outputs": [
        {
          "internalType": "bool",
          "name": "",
          "type": "bool"
        }
      ],
      "stateMutability": "view",
      "type": "function"
    },
    {
      "inputs": [
        {
          "internalType": "uint256",
          "name": "",
          "type": "uint256"
        }
      ],
      "name": "agentMetadata",
      "outputs": [
        {
          "internalType": "string",
          "name": "name",
          "type": "string"
        },
        {
          "internalType": "string",
          "name": "personalityHash",
          "type": "string"
        },
        {
          "internalType": "uint256",
          "name": "createdAt",
          "type": "uint256"
        },
        {
          "internalType": "address",
          "name": "creator",
          "type": "address"
        },
        {
          "internalType": "uint256",
          "name": "chatCount",
          "type": "uint256"
        },
        {
          "internalType": "uint256",
          "name": "level",
          "type": "uint256"
        }
      ],
      "stateMutability": "view",
      "type": "function"
    },
    {
      "inputs": [
        {
          "internalType": "address",
          "name": "to",
          "type": "address"
        },
        {
          "internalType": "uint256",
          "name": "tokenId",
          "type": "uint256"
        }
      ],
      "name": "approve",
      "outputs": [],
      "stateMutability": "nonpayable",
      "type": "function"
    },
    {
      "inputs": [
        {
          "internalType": "address",
          "name": "owner",
          "type": "address"
        }
      ],
      "name": "balanceOf",
      "outputs": [
        {
          "internalType": "uint256",
          "name": "",
          "type": "uint256"
        }
      ],
      "stateMutability": "view",
      "type": "function"
    },
    {
      "inputs": [
        {
          "internalType": "uint256",
          "name": "tokenId",
          "type": "uint256"
        }
      ],
      "name": "burn",
      "outputs": [],
      "stateMutability": "nonpayable",
      "type": "function"
    },
    {
      "inputs": [
        {
          "internalType": "address",
          "name": "",
          "type": "address"
        },
        {
          "internalType": "uint256",
          "name": "",
          "type": "uint256"
        }
      ],
      "name": "creatorAgents",
      "outputs": [
        {
          "internalType": "uint256",
          "name": "",
          "type": "uint256"
        }
      ],
      "stateMutability": "view",
      "type": "function"
    },
    {
      "inputs": [
        {
          "internalType": "uint256",
          "name": "tokenId",
          "type": "uint256"
        }
      ],
      "name": "exists",
      "outputs": [
        {
          "internalType": "bool",
          "name": "",
          "type": "bool"
        }
      ],
      "stateMutability": "view",
      "type": "function"
    },
    {
      "inputs": [
        {
          "internalType": "uint256",
          "name": "tokenId",
          "type": "uint256"
        }
      ],
      "name": "getAgentMetadata",
      "outputs": [
        {
          "components": [
            {
              "internalType": "string",
              "name": "name",
              "type": "string"
            },
            {
              "internalType": "string",
              "name": "personalityHash",
              "type": "string"
            },
            {
              "internalType": "uint256",
              "name": "createdAt",
              "type": "uint256"
            },
            {
              "internalType": "address",
              "name": "creator",
              "type": "address"
            },
            {
              "internalType": "uint256",
              "name": "chatCount",
              "type": "uint256"
            },
            {
              "internalType": "uint256",
              "name": "level",
              "type": "uint256"
            }
          ],
          "internalType": "struct AgentNFT.AgentMetadata",
          "name": "",
          "type": "tuple"
        }
      ],
      "stateMutability": "view",
      "type": "function"
    },
    {
      "inputs": [
        {
          "internalType": "uint256",
          "name": "tokenId",
          "type": "uint256"
        }
      ],
      "name": "getAgentVisibility",
      "outputs": [
        {
          "internalType": "bool",
          "name": "",
          "type": "bool"
        }
      ],
      "stateMutability": "view",
      "type": "function"
    },
    {
      "inputs": [
        {
          "internalType": "address",
          "name": "creator",
          "type": "address"
        }
      ],
      "name": "getAgentsByCreator",
      "outputs": [
        {
          "internalType": "uint256[]",
          "name": "",
          "type": "uint256[]"
        }
      ],
      "stateMutability": "view",
      "type": "function"
    },
    {
      "inputs": [
        {
          "internalType": "address",
          "name": "owner",
          "type": "address"
        }
      ],
      "name": "getAgentsByOwner",
      "outputs": [
        {
          "internalType": "uint256[]",
          "name": "",
          "type": "uint256[]"
        }
      ],
      "stateMutability": "view",
      "type": "function"
    },
    {
      "inputs": [
        {
          "internalType": "uint256",
          "name": "offset",
          "type": "uint256"
        },
        {
          "internalType": "uint256",
          "name": "limit",
          "type": "uint256"
        }
      ],
      "name": "getAgentsWithChatCounts",
      "outputs": [
        {
          "internalType": "uint256[]",
          "name": "tokenIds",
          "type": "uint256[]"
        },
        {
          "internalType": "uint256[]",
          "name": "chatCounts",
          "type": "uint256[]"
        }
      ],
      "stateMutability": "view",
      "type": "function"
    },
    {
      "inputs": [
        {
          "internalType": "uint256",
          "name": "tokenId",
          "type": "uint256"
        }
      ],
      "name": "getApproved",
      "outputs": [
        {
          "internalType": "address",
          "name": "",
          "type": "address"
        }
      ],
      "stateMutability": "view",
      "type": "function"
    },
    {
      "inputs": [],
      "name": "getNextTokenId",
      "outputs": [
        {
          "internalType": "uint256",
          "name": "",
          "type": "uint256"
        }
      ],
      "stateMutability": "view",
      "type": "function"
    },
    {
      "inputs": [
        {
          "internalType": "uint256",
          "name": "limit",
          "type": "uint256"
        }
      ],
      "name": "getTopAgentsByChats",
      "outputs": [
        {
          "internalType": "uint256[]",
          "name": "tokenIds",
          "type": "uint256[]"
        },
        {
          "internalType": "uint256[]",
          "name": "chatCounts",
          "type": "uint256[]"
        },
        {
          "internalType": "string[]",
          "name": "names",
          "type": "string[]"
        }
      ],
      "stateMutability": "view",
      "type": "function"
    },
    {
      "inputs": [
        {
          "internalType": "address",
          "name": "owner",
          "type": "address"
        },
        {
          "internalType": "address",
          "name": "operator",
          "type": "address"
        }
      ],
      "name": "isApprovedForAll",
      "outputs": [
        {
          "internalType": "bool",
          "name": "",
          "type": "bool"
        }
      ],
      "stateMutability": "view",
      "type": "function"
    },
    {
      "inputs": [
        {
          "internalType": "string",
          "name": "name",
          "type": "string"
        },
        {
          "internalType": "string",
          "name": "tokenURI",
          "type": "string"
        },
        {
          "internalType": "string",
          "name": "personalityHash",
          "type": "string"
        }
      ],
      "name": "mintAgent",
      "outputs": [
        {
          "internalType": "uint256",
          "name": "",
          "type": "uint256"
        }
      ],
      "stateMutability": "payable",
      "type": "function"
    },
    {
      "inputs": [],
      "name": "mintingFee",
      "outputs": [
        {
          "internalType": "uint256",
          "name": "",
          "type": "uint256"
        }
      ],
      "stateMutability": "view",
      "type": "function"
    },
    {
      "inputs": [],
      "name": "name",
      "outputs": [
        {
          "internalType": "string",
          "name": "",
          "type": "string"
        }
      ],
      "stateMutability": "view",
      "type": "function"
    },
    {
      "inputs": [],
      "name": "owner",
      "outputs": [
        {
          "internalType": "address",
          "name": "",
          "type": "address"
        }
      ],
      "stateMutability": "view",
      "type": "function"
    },
    {
      "inputs": [
        {
          "internalType": "uint256",
          "name": "tokenId",
          "type": "uint256"
        }
      ],
      "name": "ownerOf",
      "outputs": [
        {
          "internalType": "address",
          "name": "",
          "type": "address"
        }
      ],
      "stateMutability": "view",
      "type": "function"
    },
    {
      "inputs": [
        {
          "internalType": "uint256",
          "name": "tokenId",
          "type": "uint256"
        }
      ],
      "name": "recordChat",
      "outputs": [],
      "stateMutability": "nonpayable",
      "type": "function"
    },
    {
      "inputs": [],
      "name": "renounceOwnership",
      "outputs": [],
      "stateMutability": "nonpayable",
      "type": "function"
    },
    {
      "inputs": [
        {
          "internalType": "address",
          "name": "from",
          "type": "address"
        },
        {
          "internalType": "address",
          "name": "to",
          "type": "address"
        },
        {
          "internalType": "uint256",
          "name": "tokenId",
          "type": "uint256"
        }
      ],
      "name": "safeTransferFrom",
      "outputs": [],
      "stateMutability": "nonpayable",
      "type": "function"
    },
    {
      "inputs": [
        {
          "internalType": "address",
          "name": "from",
          "type": "address"
        },
        {
          "internalType": "address",
          "name": "to",
          "type": "address"
        },
        {
          "internalType": "uint256",
          "name": "tokenId",
          "type": "uint256"
        },
        {
          "internalType": "bytes",
          "name": "data",
          "type": "bytes"
        }
      ],
      "name": "safeTransferFrom",
      "outputs": [],
      "stateMutability": "nonpayable",
      "type": "function"
    },
    {
      "inputs": [
        {
          "internalType": "uint256",
          "name": "tokenId",
          "type": "uint256"
        },
        {
          "internalType": "bool",
          "name": "_isPublic",
          "type": "bool"
        }
      ],
      "name": "setAgentPublic",
      "outputs": [],
      "stateMutability": "nonpayable",
      "type": "function"
    },
    {
      "inputs": [
        {
          "internalType": "address",
          "name": "operator",
          "type": "address"
        },
        {
          "internalType": "bool",
          "name": "approved",
          "type": "bool"
        }
      ],
      "name": "setApprovalForAll",
      "outputs": [],
      "stateMutability": "nonpayable",
      "type": "function"
    },
    {
      "inputs": [
        {
          "internalType": "uint256",
          "name": "newFee",
          "type": "uint256"
        }
      ],
      "name": "setMintingFee",
      "outputs": [],
      "stateMutability": "nonpayable",
      "type": "function"
    },
    {
      "inputs": [
        {
          "internalType": "bytes4",
          "name": "interfaceId",
          "type": "bytes4"
        }
      ],
      "name": "supportsInterface",
      "outputs": [
        {
          "internalType": "bool",
          "name": "",
          "type": "bool"
        }
      ],
      "stateMutability": "view",
      "type": "function"
    },
    {
      "inputs": [],
      "name": "symbol",
      "outputs": [
        {
          "internalType": "string",
          "name": "",
          "type": "string"
        }
      ],
      "stateMutability": "view",
      "type": "function"
    },
    {
      "inputs": [
        {
          "internalType": "uint256",
          "name": "tokenId",
          "type": "uint256"
        }
      ],
      "name": "tokenURI",
      "outputs": [
        {
          "internalType": "string",
          "name": "",
          "type": "string"
        }
      ],
      "stateMutability": "view",
      "type": "function"
    },
    {
      "inputs": [],
      "name": "totalSupply",
      "outputs": [
        {
          "internalType": "uint256",
          "name": "",
          "type": "uint256"
        }
      ],
      "stateMutability": "view",
      "type": "function"
    },
    {
      "inputs": [
        {
          "internalType": "address",
          "name": "from",
          "type": "address"
        },
        {
          "internalType": "address",
          "name": "to",
          "type": "address"
        },
        {
          "internalType": "uint256",
          "name": "tokenId",
          "type": "uint256"
        }
      ],
      "name": "transferFrom",
      "outputs": [],
      "stateMutability": "nonpayable",
      "type": "function"
    },
    {
      "inputs": [
        {
          "internalType": "address",
          "name": "newOwner",
          "type": "address"
        }
      ],
      "name": "transferOwnership",
      "outputs": [],
      "stateMutability": "nonpayable",
      "type": "function"
    },
    {
      "inputs": [],
      "name": "withdraw",
      "outputs": [],
      "stateMutability": "nonpayable",
      "type": "function"
    }
  ],
  "transactionHash": "0x6fcfecaf163659d1502bbf46d3df367a7b2d497d2ca606c09a942d7e622d2552",
  "args": [],
  "numDeployments": 1,
  "solcInputHash": "3a13a8bac3472bf992380ea9cf7da5d8",
  "bytecode": "0x60806040526001600955662386f26fc10000600a553480156200002157600080fd5b50336040518060400160405280600c81526020016b1052481059d95b9d0813919560a21b815250604051806040016040528060058152602001641051d1539560da1b8152508160009081620000779190620001c6565b506001620000868282620001c6565b5050506001600160a01b038116620000b857604051631e4fbdf760e01b81526000600482015260240160405180910390fd5b620000c381620000cf565b50600160085562000292565b600780546001600160a01b038381166001600160a01b0319831681179093556040519116919082907f8be0079c531659141344cd1fd0a4f28419497f9722a3daafe3b4186f6b6457e090600090a35050565b634e487b7160e01b600052604160045260246000fd5b600181811c908216806200014c57607f821691505b6020821081036200016d57634e487b7160e01b600052602260045260246000fd5b50919050565b601f821115620001c157600081815260208120601f850160051c810160208610156200019c5750805b601f850160051c820191505b81811015620001bd57828155600101620001a8565b5050505b505050565b81516001600160401b03811115620001e257620001e262000121565b620001fa81620001f3845462000137565b8462000173565b602080601f831160018114620002325760008415620002195750858301515b600019600386901b1c1916600185901b178555620001bd565b600085815260208120601f198616915b82811015620002635788860151825594840194600190910190840162000242565b5085821015620002825787850151600019600388901b60f8161c191681555b5050505050600190811b01905550565b612e4b80620002a26000396000f3fe60806040526004361061020f5760003560e01c80636352211e11610118578063b88d4fde116100a0578063e246578c1161006f578063e246578c14610631578063e29efed414610651578063e47bc83614610671578063e985e9c514610691578063f2fde38b146106b157600080fd5b8063b88d4fde146105c9578063be99bffd146105e9578063c87b56dd146105fc578063caa0f92a1461061c57600080fd5b80637340b154116100e75780637340b154146105285780638da5cb5b1461054857806395d89b4114610566578063a22cb4651461057b578063ab390ca61461059b57600080fd5b80636352211e146104be57806364c25aa8146104de57806370a08231146104f3578063715018a61461051357600080fd5b80633ccfd60b1161019b57806348fe3f441161016a57806348fe3f441461040b5780634e8a9f0c1461042b5780634f558e791461045b578063592953301461047b5780635a64ad95146104a857600080fd5b80633ccfd60b1461038457806342842e0e1461039957806342966c68146103b957806347a95efb146103d957600080fd5b806318160ddd116101e257806318160ddd146102c55780631ab6f888146102e8578063238a47091461031557806323b872dd146103355780633c50e5911461035557600080fd5b806301ffc9a71461021457806306fdde0314610249578063081812fc1461026b578063095ea7b3146102a3575b600080fd5b34801561022057600080fd5b5061023461022f36600461260b565b6106d1565b60405190151581526020015b60405180910390f35b34801561025557600080fd5b5061025e6106fc565b6040516102409190612678565b34801561027757600080fd5b5061028b61028636600461268b565b61078e565b6040516001600160a01b039091168152602001610240565b3480156102af57600080fd5b506102c36102be3660046126c0565b6107b7565b005b3480156102d157600080fd5b506102da6107c6565b604051908152602001610240565b3480156102f457600080fd5b506103086103033660046126ea565b6107dc565b6040516102409190612740565b34801561032157600080fd5b506102c361033036600461268b565b6108b0565b34801561034157600080fd5b506102c3610350366004612753565b6108f3565b34801561036157600080fd5b5061037561037036600461268b565b610983565b6040516102409392919061278f565b34801561039057600080fd5b506102c3610f4e565b3480156103a557600080fd5b506102c36103b4366004612753565b611059565b3480156103c557600080fd5b506102c36103d436600461268b565b611079565b3480156103e557600080fd5b506103f96103f436600461268b565b6110d5565b60405161024096959493929190612816565b34801561041757600080fd5b5061023461042636600461268b565b611224565b34801561043757600080fd5b5061023461044636600461268b565b600d6020526000908152604090205460ff1681565b34801561046757600080fd5b5061023461047636600461268b565b61126c565b34801561048757600080fd5b5061049b61049636600461268b565b611289565b604051610240919061286a565b3480156104b457600080fd5b506102da600a5481565b3480156104ca57600080fd5b5061028b6104d936600461268b565b611470565b3480156104ea57600080fd5b506102da606481565b3480156104ff57600080fd5b506102da61050e3660046126ea565b61147b565b34801561051f57600080fd5b506102c36114c3565b34801561053457600080fd5b506102da6105433660046126c0565b6114d5565b34801561055457600080fd5b506007546001600160a01b031661028b565b34801561057257600080fd5b5061025e611506565b34801561058757600080fd5b506102c36105963660046128f0565b611515565b3480156105a757600080fd5b506105bb6105b6366004612923565b611520565b604051610240929190612945565b3480156105d557600080fd5b506102c36105e43660046129fe565b6116d5565b6102da6105f7366004612a99565b6116ed565b34801561060857600080fd5b5061025e61061736600461268b565b61193c565b34801561062857600080fd5b506009546102da565b34801561063d57600080fd5b5061030861064c3660046126ea565b611a4d565b34801561065d57600080fd5b506102c361066c36600461268b565b611ab9565b34801561067d57600080fd5b506102c361068c366004612b20565b611bff565b34801561069d57600080fd5b506102346106ac366004612b43565b611ca8565b3480156106bd57600080fd5b506102c36106cc3660046126ea565b611cd6565b60006001600160e01b03198216632483248360e11b14806106f657506106f682611d11565b92915050565b60606000805461070b90612b6d565b80601f016020809104026020016040519081016040528092919081815260200182805461073790612b6d565b80156107845780601f1061075957610100808354040283529160200191610784565b820191906000526020600020905b81548152906001019060200180831161076757829003601f168201915b5050505050905090565b600061079982611d61565b506000828152600460205260409020546001600160a01b03166106f6565b6107c2828233611d99565b5050565b600060016009546107d79190612bbd565b905090565b606060006107e98361147b565b90506000816001600160401b0381111561080557610805612973565b60405190808252806020026020018201604052801561082e578160200160208202803683370190505b509050600060015b6009548110156108a657856001600160a01b031661085382611da6565b6001600160a01b031603610894578083838151811061087457610874612bd0565b60209081029190910101528161088981612be6565b9250508382146108a6575b8061089e81612be6565b915050610836565b5090949350505050565b6108b8611dc1565b600a8190556040518181527f9a7c33ea6df1d6d7f2348eda287c9493ced6ba1e043a8e681f50075dc9cdd4ca9060200160405180910390a150565b6001600160a01b03821661092257604051633250574960e11b8152600060048201526024015b60405180910390fd5b600061092f838333611dee565b9050836001600160a01b0316816001600160a01b03161461097d576040516364283d7b60e01b81526001600160a01b0380861660048301526024820184905282166044820152606401610919565b50505050565b6060806060600060648511610998578461099b565b60645b9050600060016009546109ae9190612bbd565b905080600003610a005760408051600080825260208201818152828401828152606084019094529192906109f2565b60608152602001906001900390816109dd5790505b509450945094505050610f47565b6000828210610a0f5782610a11565b815b9050600060015b600954811015610a5b576000610a2d82611da6565b6001600160a01b031614610a495781610a4581612be6565b9250505b80610a5381612be6565b915050610a18565b506000816001600160401b03811115610a7657610a76612973565b604051908082528060200260200182016040528015610a9f578160200160208202803683370190505b5090506000826001600160401b03811115610abc57610abc612973565b604051908082528060200260200182016040528015610ae5578160200160208202803683370190505b509050600060015b600954811015610b83576000610b0282611da6565b6001600160a01b031614610b715780848381518110610b2357610b23612bd0565b602002602001018181525050600b600082815260200190815260200160002060040154838381518110610b5857610b58612bd0565b602090810291909101015281610b6d81612be6565b9250505b80610b7b81612be6565b915050610aed565b5060005b84811015610cf3576000610b9c826001612bff565b90505b85811015610ce057838281518110610bb957610bb9612bd0565b6020026020010151848281518110610bd357610bd3612bd0565b60200260200101511115610cce576000848381518110610bf557610bf5612bd0565b60200260200101519050848281518110610c1157610c11612bd0565b6020026020010151858481518110610c2b57610c2b612bd0565b60200260200101818152505080858381518110610c4a57610c4a612bd0565b6020026020010181815250506000868481518110610c6a57610c6a612bd0565b60200260200101519050868381518110610c8657610c86612bd0565b6020026020010151878581518110610ca057610ca0612bd0565b60200260200101818152505080878481518110610cbf57610cbf612bd0565b60200260200101818152505050505b80610cd881612be6565b915050610b9f565b5080610ceb81612be6565b915050610b87565b508a8410610d01578a610d03565b835b9450846001600160401b03811115610d1d57610d1d612973565b604051908082528060200260200182016040528015610d46578160200160208202803683370190505b509950846001600160401b03811115610d6157610d61612973565b604051908082528060200260200182016040528015610d8a578160200160208202803683370190505b509850846001600160401b03811115610da557610da5612973565b604051908082528060200260200182016040528015610dd857816020015b6060815260200190600190039081610dc35790505b50975060005b85811015610f3e57838181518110610df857610df8612bd0565b60200260200101518b8281518110610e1257610e12612bd0565b602002602001018181525050828181518110610e3057610e30612bd0565b60200260200101518a8281518110610e4a57610e4a612bd0565b602002602001018181525050600b6000858381518110610e6c57610e6c612bd0565b602002602001015181526020019081526020016000206000018054610e9090612b6d565b80601f0160208091040260200160405190810160405280929190818152602001828054610ebc90612b6d565b8015610f095780601f10610ede57610100808354040283529160200191610f09565b820191906000526020600020905b815481529060010190602001808311610eec57829003601f168201915b5050505050898281518110610f2057610f20612bd0565b60200260200101819052508080610f3690612be6565b915050610dde565b50505050505050505b9193909250565b610f56611dc1565b610f5e611ee2565b4780610fa35760405162461bcd60e51b81526020600482015260146024820152734e6f2066756e647320746f20776974686472617760601b6044820152606401610919565b6000610fb76007546001600160a01b031690565b6001600160a01b03168260405160006040518083038185875af1925050503d8060008114611001576040519150601f19603f3d011682016040523d82523d6000602084013e611006565b606091505b505090508061104b5760405162461bcd60e51b815260206004820152601160248201527015da5d1a191c985dd85b0819985a5b1959607a1b6044820152606401610919565b50506110576001600855565b565b611074838383604051806020016040528060008152506116d5565b505050565b3361108382611470565b6001600160a01b0316146110c95760405162461bcd60e51b815260206004820152600d60248201526c2737ba103a34329037bbb732b960991b6044820152606401610919565b6110d281611f0c565b50565b600b602052600090815260409020805481906110f090612b6d565b80601f016020809104026020016040519081016040528092919081815260200182805461111c90612b6d565b80156111695780601f1061113e57610100808354040283529160200191611169565b820191906000526020600020905b81548152906001019060200180831161114c57829003601f168201915b50505050509080600101805461117e90612b6d565b80601f01602080910402602001604051908101604052809291908181526020018280546111aa90612b6d565b80156111f75780601f106111cc576101008083540402835291602001916111f7565b820191906000526020600020905b8154815290600101906020018083116111da57829003601f168201915b50505050600283015460038401546004850154600590950154939491936001600160a01b03909116925086565b60008061123083611da6565b6001600160a01b0316036112565760405162461bcd60e51b815260040161091990612c12565b506000908152600d602052604090205460ff1690565b60008061127883611da6565b6001600160a01b0316141592915050565b6112cb6040518060c0016040528060608152602001606081526020016000815260200160006001600160a01b0316815260200160008152602001600081525090565b60006112d683611da6565b6001600160a01b0316036112fc5760405162461bcd60e51b815260040161091990612c12565b6000828152600b602052604090819020815160c0810190925280548290829061132490612b6d565b80601f016020809104026020016040519081016040528092919081815260200182805461135090612b6d565b801561139d5780601f106113725761010080835404028352916020019161139d565b820191906000526020600020905b81548152906001019060200180831161138057829003601f168201915b505050505081526020016001820180546113b690612b6d565b80601f01602080910402602001604051908101604052809291908181526020018280546113e290612b6d565b801561142f5780601f106114045761010080835404028352916020019161142f565b820191906000526020600020905b81548152906001019060200180831161141257829003601f168201915b50505091835250506002820154602082015260038201546001600160a01b031660408201526004820154606082015260059091015460809091015292915050565b60006106f682611d61565b60006001600160a01b0382166114a7576040516322718ad960e21b815260006004820152602401610919565b506001600160a01b031660009081526003602052604090205490565b6114cb611dc1565b6110576000611f47565b600c60205281600052604060002081815481106114f157600080fd5b90600052602060002001600091509150505481565b60606001805461070b90612b6d565b6107c2338383611f99565b606080600060016009546115349190612bbd565b905080851061155c5750506040805160008082526020820190815281830190925291506116ce565b60006115688587612bff565b9050818111156115755750805b60006115818783612bbd565b9050806001600160401b0381111561159b5761159b612973565b6040519080825280602002602001820160405280156115c4578160200160208202803683370190505b509450806001600160401b038111156115df576115df612973565b604051908082528060200260200182016040528015611608578160200160208202803683370190505b50935060008060015b6009548110801561162157508383105b156116c757600061163182611da6565b6001600160a01b0316146116b5578982106116a7578088848151811061165957611659612bd0565b602002602001018181525050600b60008281526020019081526020016000206004015487848151811061168e5761168e612bd0565b6020908102919091010152826116a381612be6565b9350505b816116b181612be6565b9250505b806116bf81612be6565b915050611611565b5050505050505b9250929050565b6116e08484846108f3565b61097d3385858585612038565b60006116f7611ee2565b600a543410156117495760405162461bcd60e51b815260206004820152601860248201527f496e73756666696369656e74206d696e74696e672066656500000000000000006044820152606401610919565b60008451116117915760405162461bcd60e51b81526020600482015260146024820152734e616d652063616e6e6f7420626520656d70747960601b6044820152606401610919565b60008351116117e25760405162461bcd60e51b815260206004820152601960248201527f546f6b656e205552492063616e6e6f7420626520656d707479000000000000006044820152606401610919565b60098054600091826117f383612be6565b9190505590506118033382612163565b61180d818561217d565b6040805160c08101825286815260208082018690524282840152336060830152600060808301819052600160a0840152848152600b90915291909120815181906118579082612c86565b506020820151600182019061186c9082612c86565b50604082810151600283015560608301516003830180546001600160a01b0319166001600160a01b039092169190911790556080830151600483015560a090920151600590910155336000818152600c602090815283822080546001818101835591845282842001869055858352600d90915290839020805460ff19169091179055905182907f9db9853ba935d624801933c95b246da5b0048a3b2841c95e4164875f20c217aa906119219089908890612d45565b60405180910390a390506119356001600855565b9392505050565b606061194782611d61565b506000828152600660205260408120805461196190612b6d565b80601f016020809104026020016040519081016040528092919081815260200182805461198d90612b6d565b80156119da5780601f106119af576101008083540402835291602001916119da565b820191906000526020600020905b8154815290600101906020018083116119bd57829003601f168201915b5050505050905060006119f860408051602081019091526000815290565b90508051600003611a0a575092915050565b815115611a3c578082604051602001611a24929190612d6a565b60405160208183030381529060405292505050919050565b611a45846121cd565b949350505050565b6001600160a01b0381166000908152600c6020908152604091829020805483518184028101840190945280845260609392830182828015611aad57602002820191906000526020600020905b815481526020019060010190808311611a99575b50505050509050919050565b611ac1611dc1565b6000611acc82611da6565b6001600160a01b031603611af25760405162461bcd60e51b815260040161091990612c12565b6000818152600b60205260408120600401805491611b0f83612be6565b90915550506000818152600b6020526040902060040154611b3290606490612d99565b600003611bac576000818152600b60205260408120600501805491611b5683612be6565b9190505550807fa3c436c1cc510e7b50e7b1aa523210358f1d9ab8da81d49a6f3d6df5e580fc6a600b600084815260200190815260200160002060050154604051611ba391815260200190565b60405180910390a25b807f2469a9d71d1c761391bb9f4e333db6a77243b783c45c436117b83de9313c50f5600b600084815260200190815260200160002060040154604051611bf491815260200190565b60405180910390a250565b33611c0983611470565b6001600160a01b031614611c515760405162461bcd60e51b815260206004820152600f60248201526e2737ba1030b3b2b73a1037bbb732b960891b6044820152606401610919565b6000828152600d6020908152604091829020805460ff1916841515908117909155915191825283917f752da5ec3a232235673f878dc6bdcded05c57cefc2e27c30ca676b0a7ab23dba910160405180910390a25050565b6001600160a01b03918216600090815260056020908152604080832093909416825291909152205460ff1690565b611cde611dc1565b6001600160a01b038116611d0857604051631e4fbdf760e01b815260006004820152602401610919565b6110d281611f47565b60006001600160e01b031982166380ac58cd60e01b1480611d4257506001600160e01b03198216635b5e139f60e01b145b806106f657506301ffc9a760e01b6001600160e01b03198316146106f6565b600080611d6d83611da6565b90506001600160a01b0381166106f657604051637e27328960e01b815260048101849052602401610919565b6110748383836001612241565b6000908152600260205260409020546001600160a01b031690565b6007546001600160a01b031633146110575760405163118cdaa760e01b8152336004820152602401610919565b600080611dfa84611da6565b90506001600160a01b03831615611e1657611e16818486612347565b6001600160a01b03811615611e5457611e33600085600080612241565b6001600160a01b038116600090815260036020526040902080546000190190555b6001600160a01b03851615611e83576001600160a01b0385166000908152600360205260409020805460010190555b60008481526002602052604080822080546001600160a01b0319166001600160a01b0389811691821790925591518793918516917fddf252ad1be2c89b69c2b068fc378daa952ba7f163c4a11628f55a4df523b3ef91a4949350505050565b600260085403611f0557604051633ee5aeb560e01b815260040160405180910390fd5b6002600855565b6000611f1b6000836000611dee565b90506001600160a01b0381166107c257604051637e27328960e01b815260048101839052602401610919565b600780546001600160a01b038381166001600160a01b0319831681179093556040519116919082907f8be0079c531659141344cd1fd0a4f28419497f9722a3daafe3b4186f6b6457e090600090a35050565b6001600160a01b038216611fcb57604051630b61174360e31b81526001600160a01b0383166004820152602401610919565b6001600160a01b03838116600081815260056020908152604080832094871680845294825291829020805460ff191686151590811790915591519182527f17307eab39ab6107e8899845ad3d59bd9653f200f220920489ca2b5937696c31910160405180910390a3505050565b6001600160a01b0383163b1561215c57604051630a85bd0160e11b81526001600160a01b0384169063150b7a029061207a908890889087908790600401612dbb565b6020604051808303816000875af19250505080156120b5575060408051601f3d908101601f191682019092526120b291810190612df8565b60015b61211e573d8080156120e3576040519150601f19603f3d011682016040523d82523d6000602084013e6120e8565b606091505b50805160000361211657604051633250574960e11b81526001600160a01b0385166004820152602401610919565b805160208201fd5b6001600160e01b03198116630a85bd0160e11b1461215a57604051633250574960e11b81526001600160a01b0385166004820152602401610919565b505b5050505050565b6107c28282604051806020016040528060008152506123ab565b60008281526006602052604090206121958282612c86565b506040518281527ff8e1a15aba9398e019f0b49df1a4fde98ee17ae345cb5f6b5e2c27f5033e8ce79060200160405180910390a15050565b60606121d882611d61565b5060006121f060408051602081019091526000815290565b905060008151116122105760405180602001604052806000815250611935565b8061221a846123c3565b60405160200161222b929190612d6a565b6040516020818303038152906040529392505050565b808061225557506001600160a01b03821615155b1561231757600061226584611d61565b90506001600160a01b038316158015906122915750826001600160a01b0316816001600160a01b031614155b80156122a457506122a28184611ca8565b155b156122cd5760405163a9fbf51f60e01b81526001600160a01b0384166004820152602401610919565b81156123155783856001600160a01b0316826001600160a01b03167f8c5be1e5ebec7d5bd14f71427d1e84f3dd0314c0f7b2291e5b200ac8c7c3b92560405160405180910390a45b505b5050600090815260046020526040902080546001600160a01b0319166001600160a01b0392909216919091179055565b612352838383612455565b611074576001600160a01b03831661238057604051637e27328960e01b815260048101829052602401610919565b60405163177e802f60e01b81526001600160a01b038316600482015260248101829052604401610919565b6123b583836124b8565b611074336000858585612038565b606060006123d08361251d565b60010190506000816001600160401b038111156123ef576123ef612973565b6040519080825280601f01601f191660200182016040528015612419576020820181803683370190505b5090508181016020015b600019016f181899199a1a9b1b9c1cb0b131b232b360811b600a86061a8153600a850494508461242357509392505050565b60006001600160a01b03831615801590611a455750826001600160a01b0316846001600160a01b0316148061248f575061248f8484611ca8565b80611a455750506000908152600460205260409020546001600160a01b03908116911614919050565b6001600160a01b0382166124e257604051633250574960e11b815260006004820152602401610919565b60006124f083836000611dee565b90506001600160a01b03811615611074576040516339e3563760e11b815260006004820152602401610919565b60008072184f03e93ff9f4daa797ed6e38ed64bf6a1f0160401b831061255c5772184f03e93ff9f4daa797ed6e38ed64bf6a1f0160401b830492506040015b6d04ee2d6d415b85acef81000000008310612588576d04ee2d6d415b85acef8100000000830492506020015b662386f26fc1000083106125a657662386f26fc10000830492506010015b6305f5e10083106125be576305f5e100830492506008015b61271083106125d257612710830492506004015b606483106125e4576064830492506002015b600a83106106f65760010192915050565b6001600160e01b0319811681146110d257600080fd5b60006020828403121561261d57600080fd5b8135611935816125f5565b60005b8381101561264357818101518382015260200161262b565b50506000910152565b60008151808452612664816020860160208601612628565b601f01601f19169290920160200192915050565b602081526000611935602083018461264c565b60006020828403121561269d57600080fd5b5035919050565b80356001600160a01b03811681146126bb57600080fd5b919050565b600080604083850312156126d357600080fd5b6126dc836126a4565b946020939093013593505050565b6000602082840312156126fc57600080fd5b611935826126a4565b600081518084526020808501945080840160005b8381101561273557815187529582019590820190600101612719565b509495945050505050565b6020815260006119356020830184612705565b60008060006060848603121561276857600080fd5b612771846126a4565b925061277f602085016126a4565b9150604084013590509250925092565b6060815260006127a26060830186612705565b6020838203818501526127b58287612705565b915083820360408501528185518084528284019150828160051b85010183880160005b8381101561280657601f198784030185526127f483835161264c565b948601949250908501906001016127d8565b50909a9950505050505050505050565b60c08152600061282960c083018961264c565b828103602084015261283b818961264c565b604084019790975250506001600160a01b03939093166060840152608083019190915260a09091015292915050565b602081526000825160c0602084015261288660e084018261264c565b90506020840151601f198483030160408501526128a3828261264c565b9150506040840151606084015260018060a01b036060850151166080840152608084015160a084015260a084015160c08401528091505092915050565b803580151581146126bb57600080fd5b6000806040838503121561290357600080fd5b61290c836126a4565b915061291a602084016128e0565b90509250929050565b6000806040838503121561293657600080fd5b50508035926020909101359150565b6040815260006129586040830185612705565b828103602084015261296a8185612705565b95945050505050565b634e487b7160e01b600052604160045260246000fd5b60006001600160401b03808411156129a3576129a3612973565b604051601f8501601f19908116603f011681019082821181831017156129cb576129cb612973565b816040528093508581528686860111156129e457600080fd5b858560208301376000602087830101525050509392505050565b60008060008060808587031215612a1457600080fd5b612a1d856126a4565b9350612a2b602086016126a4565b92506040850135915060608501356001600160401b03811115612a4d57600080fd5b8501601f81018713612a5e57600080fd5b612a6d87823560208401612989565b91505092959194509250565b600082601f830112612a8a57600080fd5b61193583833560208501612989565b600080600060608486031215612aae57600080fd5b83356001600160401b0380821115612ac557600080fd5b612ad187838801612a79565b94506020860135915080821115612ae757600080fd5b612af387838801612a79565b93506040860135915080821115612b0957600080fd5b50612b1686828701612a79565b9150509250925092565b60008060408385031215612b3357600080fd5b8235915061291a602084016128e0565b60008060408385031215612b5657600080fd5b612b5f836126a4565b915061291a602084016126a4565b600181811c90821680612b8157607f821691505b602082108103612ba157634e487b7160e01b600052602260045260246000fd5b50919050565b634e487b7160e01b600052601160045260246000fd5b818103818111156106f6576106f6612ba7565b634e487b7160e01b600052603260045260246000fd5b600060018201612bf857612bf8612ba7565b5060010190565b808201808211156106f6576106f6612ba7565b6020808252601490820152731059d95b9d08191bd95cc81b9bdd08195e1a5cdd60621b604082015260600190565b601f82111561107457600081815260208120601f850160051c81016020861015612c675750805b601f850160051c820191505b8181101561215a57828155600101612c73565b81516001600160401b03811115612c9f57612c9f612973565b612cb381612cad8454612b6d565b84612c40565b602080601f831160018114612ce85760008415612cd05750858301515b600019600386901b1c1916600185901b17855561215a565b600085815260208120601f198616915b82811015612d1757888601518255948401946001909101908401612cf8565b5085821015612d355787850151600019600388901b60f8161c191681555b5050505050600190811b01905550565b604081526000612d58604083018561264c565b828103602084015261296a818561264c565b60008351612d7c818460208801612628565b835190830190612d90818360208801612628565b01949350505050565b600082612db657634e487b7160e01b600052601260045260246000fd5b500690565b6001600160a01b0385811682528416602082015260408101839052608060608201819052600090612dee9083018461264c565b9695505050505050565b600060208284031215612e0a57600080fd5b8151611935816125f556fea264697066735822122083de8a2cbf6b49ca0af5eed5e62ba7e6a5eb98e35490edfcfc69e8c245e54b1864736f6c63430008140033",
  "devdoc": {
    "details": "ERC721 contract for AI Agent NFTs with personality traits",
    "errors": {
      "ERC721IncorrectOwner(address,uint256,address)": [
        {
          "details": "Indicates an error related to the ownership over a particular token. Used in transfers.",
          "params": {
            "owner": "Address of the current owner of a token.",
            "sender": "Address whose tokens are being transferred.",
            "tokenId": "Identifier number of a token."
          }
        }
      ],
      "ERC721InsufficientApproval(address,uint256)": [
        {
          "details": "Indicates a failure with the `operator`’s approval. Used in transfers.",
          "params": {
            "operator": "Address that may be allowed to operate on tokens without being their owner.",
            "tokenId": "Identifier number of a token."
          }
        }
      ],
      "ERC721InvalidApprover(address)": [
        {
          "details": "Indicates a failure with the `approver` of a token to be approved. Used in approvals.",
          "params": {
            "approver": "Address initiating an approval operation."
          }
        }
      ],
      "ERC721InvalidOperator(address)": [
        {
          "details": "Indicates a failure with the `operator` to be approved. Used in approvals.",
          "params": {
            "operator": "Address that may be allowed to operate on tokens without being their owner."
          }
        }
      ],
      "ERC721InvalidOwner(address)": [
        {
          "details": "Indicates that an address can't be an owner. For example, `address(0)` is a forbidden owner in ERC-20. Used in balance queries.",
          "params": {
            "owner": "Address of the current owner of a token."
          }
        }
      ],
      "ERC721InvalidReceiver(address)": [
        {
          "details": "Indicates a failure with the token `receiver`. Used in transfers.",
          "params": {
            "receiver": "Address to which tokens are being transferred."
          }
        }
      ],
      "ERC721InvalidSender(address)": [
        {
          "details": "Indicates a failure with the token `sender`. Used in transfers.",
          "params": {
            "sender": "Address whose tokens are being transferred."
          }
        }
      ],
      "ERC721NonexistentToken(uint256)": [
        {
          "details": "Indicates a `tokenId` whose `owner` is the zero address.",
          "params": {
            "tokenId": "Identifier number of a token."
          }
        }
      ],
      "OwnableInvalidOwner(address)": [
        {
          "details": "The owner is not a valid owner account. (eg. `address(0)`)"
        }
      ],
      "OwnableUnauthorizedAccount(address)": [
        {
          "details": "The caller account is not authorized to perform an operation."
        }
      ],
      "ReentrancyGuardReentrantCall()": [
        {
          "details": "Unauthorized reentrant call."
        }
      ]
    },
    "events": {
      "Approval(address,address,uint256)": {
        "details": "Emitted when `owner` enables `approved` to manage the `tokenId` token."
      },
      "ApprovalForAll(address,address,bool)": {
        "details": "Emitted when `owner` enables or disables (`approved`) `operator` to manage all of its assets."
      },
      "BatchMetadataUpdate(uint256,uint256)": {
        "details": "This event emits when the metadata of a range of tokens is changed. So that the third-party platforms such as NFT market could timely update the images and related attributes of the NFTs."
      },
      "MetadataUpdate(uint256)": {
        "details": "This event emits when the metadata of a token is changed. So that the third-party platforms such as NFT market could timely update the images and related attributes of the NFT."
      },
      "Transfer(address,address,uint256)": {
        "details": "Emitted when `tokenId` token is transferred from `from` to `to`."
      }
    },
    "kind": "dev",
    "methods": {
      "approve(address,uint256)": {
        "details": "Gives permission to `to` to transfer `tokenId` token to another account. The approval is cleared when the token is transferred. Only a single account can be approved at a time, so approving the zero address clears previous approvals. Requirements: - The caller must own the token or be an approved operator. - `tokenId` must exist. Emits an {Approval} event."
      },
      "balanceOf(address)": {
        "details": "Returns the number of tokens in ``owner``'s account."
      },
      "burn(uint256)": {
        "details": "Burn an agent (owner only)"
      },
      "exists(uint256)": {
        "details": "Check if a token exists"
      },
      "getAgentMetadata(uint256)": {
        "details": "Get agent metadata"
      },
      "getAgentVisibility(uint256)": {
        "details": "Get agent visibility"
      },
      "getAgentsByCreator(address)": {
        "details": "Get agents created by an address"
      },
      "getAgentsByOwner(address)": {
        "details": "Get all agents owned by an address"
      },
      "getAgentsWithChatCounts(uint256,uint256)": {
        "details": "Get agents with their chat counts (paginated)",
        "params": {
          "limit": "Number of agents to return",
          "offset": "Starting index"
        },
        "returns": {
          "chatCounts": "Array of chat counts",
          "tokenIds": "Array of token IDs"
        }
      },
      "getApproved(uint256)": {
        "details": "Returns the account approved for `tokenId` token. Requirements: - `tokenId` must exist."
      },
      "getNextTokenId()": {
        "details": "Get next token ID that will be minted"
      },
      "getTopAgentsByChats(uint256)": {
        "details": "Get top agents by chat count",
        "params": {
          "limit": "Maximum number of agents to return"
        },
        "returns": {
          "chatCounts": "Array of corresponding chat counts",
          "names": "Array of agent names",
          "tokenIds": "Array of token IDs (sorted by chat count, descending)"
        }
      },
      "isApprovedForAll(address,address)": {
        "details": "Returns if the `operator` is allowed to manage all of the assets of `owner`. See {setApprovalForAll}"
      },
      "mintAgent(string,string,string)": {
        "details": "Mint a new AI Agent NFT",
        "params": {
          "name": "Agent name",
          "personalityHash": "IPFS hash for quick reference",
          "tokenURI": "IPFS URI with personality JSON"
        }
      },
      "name()": {
        "details": "Returns the token collection name."
      },
      "owner()": {
        "details": "Returns the address of the current owner."
      },
      "ownerOf(uint256)": {
        "details": "Returns the owner of the `tokenId` token. Requirements: - `tokenId` must exist."
      },
      "recordChat(uint256)": {
        "details": "Record a chat interaction (only backend can call)"
      },
      "renounceOwnership()": {
        "details": "Leaves the contract without owner. It will not be possible to call `onlyOwner` functions. Can only be called by the current owner. NOTE: Renouncing ownership will leave the contract without an owner, thereby disabling any functionality that is only available to the owner."
      },
      "safeTransferFrom(address,address,uint256)": {
        "details": "Safely transfers `tokenId` token from `from` to `to`, checking first that contract recipients are aware of the ERC-721 protocol to prevent tokens from being forever locked. Requirements: - `from` cannot be the zero address. - `to` cannot be the zero address. - `tokenId` token must exist and be owned by `from`. - If the caller is not `from`, it must have been allowed to move this token by either {approve} or   {setApprovalForAll}. - If `to` refers to a smart contract, it must implement {IERC721Receiver-onERC721Received}, which is called upon   a safe transfer. Emits a {Transfer} event."
      },
      "safeTransferFrom(address,address,uint256,bytes)": {
        "details": "Safely transfers `tokenId` token from `from` to `to`. Requirements: - `from` cannot be the zero address. - `to` cannot be the zero address. - `tokenId` token must exist and be owned by `from`. - If the caller is not `from`, it must be approved to move this token by either {approve} or {setApprovalForAll}. - If `to` refers to a smart contract, it must implement {IERC721Receiver-onERC721Received}, which is called upon   a safe transfer. Emits a {Transfer} event."
      },
      "setAgentPublic(uint256,bool)": {
        "details": "Set agent visibility (public or private) Only the agent owner can change this"
      },
      "setApprovalForAll(address,bool)": {
        "details": "Approve or remove `operator` as an operator for the caller. Operators can call {transferFrom} or {safeTransferFrom} for any token owned by the caller. Requirements: - The `operator` cannot be the address zero. Emits an {ApprovalForAll} event."
      },
      "setMintingFee(uint256)": {
        "details": "Update minting fee (only owner)"
      },
      "supportsInterface(bytes4)": {
        "details": "Returns true if this contract implements the interface defined by `interfaceId`. See the corresponding https://eips.ethereum.org/EIPS/eip-165#how-interfaces-are-identified[ERC section] to learn more about how these ids are created. This function call must use less than 30 000 gas."
      },
      "symbol()": {
        "details": "Returns the token collection symbol."
      },
      "tokenURI(uint256)": {
        "details": "Returns the Uniform Resource Identifier (URI) for `tokenId` token."
      },
      "totalSupply()": {
        "details": "Get total minted agents"
      },
      "transferFrom(address,address,uint256)": {
        "details": "Transfers `tokenId` token from `from` to `to`. WARNING: Note that the caller is responsible to confirm that the recipient is capable of receiving ERC-721 or else they may be permanently lost. Usage of {safeTransferFrom} prevents loss, though the caller must understand this adds an external call which potentially creates a reentrancy vulnerability. Requirements: - `from` cannot be the zero address. - `to` cannot be the zero address. - `tokenId` token must be owned by `from`. - If the caller is not `from`, it must be approved to move this token by either {approve} or {setApprovalForAll}. Emits a {Transfer} event."
      },
      "transferOwnership(address)": {
        "details": "Transfers ownership of the contract to a new account (`newOwner`). Can only be called by the current owner."
      },
      "withdraw()": {
        "details": "Withdraw accumulated fees (only owner)"
      }
    },
    "title": "AgentNFT",
    "version": 1
  },
  "userdoc": {
    "kind": "user",
    "methods": {},
    "version": 1
  },
  "storageLayout": {
    "storage": [
      {
        "astId": 349,
        "contract": "contracts/AgentNFT.sol:AgentNFT",
        "label": "_name",
        "offset": 0,
        "slot": "0",
        "type": "t_string_storage"
      },
      {
        "astId": 351,
        "contract": "contracts/AgentNFT.sol:AgentNFT",
        "label": "_symbol",
        "offset": 0,
        "slot": "1",
        "type": "t_string_storage"
      },
      {
        "astId": 355,
        "contract": "contracts/AgentNFT.sol:AgentNFT",
        "label": "_owners",
        "offset": 0,
        "slot": "2",
        "type": "t_mapping(t_uint256,t_address)"
      },
      {
        "astId": 359,
        "contract": "contracts/AgentNFT.sol:AgentNFT",
        "label": "_balances",
        "offset": 0,
        "slot": "3",
        "type": "t_mapping(t_address,t_uint256)"
      },
      {
        "astId": 363,
        "contract": "contracts/AgentNFT.sol:AgentNFT",
        "label": "_tokenApprovals",
        "offset": 0,
        "slot": "4",
        "type": "t_mapping(t_uint256,t_address)"
      },
      {
        "astId": 369,
        "contract": "contracts/AgentNFT.sol:AgentNFT",
        "label": "_operatorApprovals",
        "offset": 0,
        "slot": "5",
        "type": "t_mapping(t_address,t_mapping(t_address,t_bool))"
      },
      {
        "astId": 1438,
        "contract": "contracts/AgentNFT.sol:AgentNFT",
        "label": "_tokenURIs",
        "offset": 0,
        "slot": "6",
        "type": "t_mapping(t_uint256,t_string_storage)"
      },
      {
        "astId": 8,
        "contract": "contracts/AgentNFT.sol:AgentNFT",
        "label": "_owner",
        "offset": 0,
        "slot": "7",
        "type": "t_address"
      },
      {
        "astId": 1734,
        "contract": "contracts/AgentNFT.sol:AgentNFT",
        "label": "_status",
        "offset": 0,
        "slot": "8",
        "type": "t_uint256"
      },
      {
        "astId": 7905,
        "contract": "contracts/AgentNFT.sol:AgentNFT",
        "label": "_nextTokenId",
        "offset": 0,
        "slot": "9",
        "type": "t_uint256"
      },
      {
        "astId": 7908,
        "contract": "contracts/AgentNFT.sol:AgentNFT",
        "label": "mintingFee",
        "offset": 0,
        "slot": "10",
        "type": "t_uint256"
      },
      {
        "astId": 7929,
        "contract": "contracts/AgentNFT.sol:AgentNFT",
        "label": "agentMetadata",
        "offset": 0,
        "slot": "11",
        "type": "t_mapping(t_uint256,t_struct(AgentMetadata)7924_storage)"
      },
      {
        "astId": 7934,
        "contract": "contracts/AgentNFT.sol:AgentNFT",
        "label": "creatorAgents",
        "offset": 0,
        "slot": "12",
        "type": "t_mapping(t_address,t_array(t_uint256)dyn_storage)"
      },
      {
        "astId": 7938,
        "contract": "contracts/AgentNFT.sol:AgentNFT",
        "label": "agentIsPublic",
        "offset": 0,
        "slot": "13",
        "type": "t_mapping(t_uint256,t_bool)"
      }
    ],
    "types": {
      "t_address": {
        "encoding": "inplace",
        "label": "address",
        "numberOfBytes": "20"
      },
      "t_array(t_uint256)dyn_storage": {
        "base": "t_uint256",
        "encoding": "dynamic_array",
        "label": "uint256[]",
        "numberOfBytes": "32"
      },
      "t_bool": {
        "encoding": "inplace",
        "label": "bool",
        "numberOfBytes": "1"
      },
      "t_mapping(t_address,t_array(t_uint256)dyn_storage)": {
        "encoding": "mapping",
        "key": "t_address",
        "label": "mapping(address => uint256[])",
        "numberOfBytes": "32",
        "value": "t_array(t_uint256)dyn_storage"
      },
      "t_mapping(t_address,t_bool)": {
        "encoding": "mapping",
        "key": "t_address",
        "label": "mapping(address => bool)",
        "numberOfBytes": "32",
        "value": "t_bool"
      },
      "t_mapping(t_address,t_mapping(t_address,t_bool))": {
        "encoding": "mapping",
        "key": "t_address",
        "label": "mapping(address => mapping(address => bool))",
        "numberOfBytes": "32",
        "value": "t_mapping(t_address,t_bool)"
      },
      "t_mapping(t_address,t_uint256)": {
        "encoding": "mapping",
        "key": "t_address",
        "label": "mapping(address => uint256)",
        "numberOfBytes": "32",
        "value": "t_uint256"
      },
      "t_mapping(t_uint256,t_address)": {
        "encoding": "mapping",
        "key": "t_uint256",
        "label": "mapping(uint256 => address)",
        "numberOfBytes": "32",
        "value": "t_address"
      },
      "t_mapping(t_uint256,t_bool)": {
        "encoding": "mapping",
        "key": "t_uint256",
        "label": "mapping(uint256 => bool)",
        "numberOfBytes": "32",
        "value": "t_bool"
      },
      "t_mapping(t_uint256,t_string_storage)": {
        "encoding": "mapping",
        "key": "t_uint256",
        "label": "mapping(uint256 => string)",
        "numberOfBytes": "32",
        "value": "t_string_storage"
      },
      "t_mapping(t_uint256,t_struct(AgentMetadata)7924_storage)": {
        "encoding": "mapping",
        "key": "t_uint256",
        "label": "mapping(uint256 => struct AgentNFT.AgentMetadata)",
        "numberOfBytes": "32",
        "value": "t_struct(AgentMetadata)7924_storage"
      },
      "t_string_storage": {
        "encoding": "bytes",
        "label": "string",
        "numberOfBytes": "32"
      },
      "t_struct(AgentMetadata)7924_storage": {
        "encoding": "inplace",
        "label": "struct AgentNFT.AgentMetadata",
        "members": [
          {
            "astId": 7913,
            "contract": "contracts/AgentNFT.sol:AgentNFT",
            "label": "name",
            "offset": 0,
            "slot": "0",
            "type": "t_string_storage"
          },
          {
            "astId": 7915,
            "contract": "contracts/AgentNFT.sol:AgentNFT",
            "label": "personalityHash",
            "offset": 0,
            "slot": "1",
            "type": "t_string_storage"
          },
          {
            "astId": 7917,
            "contract": "contracts/AgentNFT.sol:AgentNFT",
            "label": "createdAt",
            "offset": 0,
            "slot": "2",
            "type": "t_uint256"
          },
          {
            "astId": 7919,
            "contract": "contracts/AgentNFT.sol:AgentNFT",
            "label": "creator",
            "offset": 0,
            "slot": "3",
            "type": "t_address"
          },
          {
            "astId": 7921,
            "contract": "contracts/AgentNFT.sol:AgentNFT",
            "label": "chatCount",
            "offset": 0,
            "slot": "4",
            "type": "t_uint256"
          },
          {
            "astId": 7923,
            "contract": "contracts/AgentNFT.sol:AgentNFT",
            "label": "level",
            "offset": 0,
            "slot": "5",
            "type": "t_uint256"
          }
        ],
        "numberOfBytes": "192"
      },
      "t_uint256": {
        "encoding": "inplace",
        "label": "uint256",
        "numberOfBytes": "32"
      }
    }
  }
}