{
  "address": "0xFF882fAB68EDF8b5eA29533FdBFCF9F48bfA38dc",
  "abi": [
    {
      "inputs": [],
      "stateMutability": "nonpayable",
      "type": "constructor"
    },
    {
      "inputs": [
        {
          "internalType": "address",
          "name": "spender",
          "type": "address"
        },
        {
          "internalType": "uint256",
          "name": "allowance",
          "type": "uint256"
        },
        {
          "internalType": "uint256",
          "name": "needed",
          "type": "uint256"
        }
      ],
      "name": "ERC20InsufficientAllowance",
      "type": "error"
    },
    {
      "inputs": [
        {
          "internalType": "address",
          "name": "sender",
          "type": "address"
        },
        {
          "internalType": "uint256",
          "name": "balance",
          "type": "uint256"
        },
        {
          "internalType": "uint256",
          "name": "needed",
          "type": "uint256"
        }
      ],
      "name": "ERC20InsufficientBalance",
      "type": "error"
    },
    {
      "inputs": [
        {
          "internalType": "address",
          "name": "approver",
          "type": "address"
        }
      ],
      "name": "ERC20InvalidApprover",
      "type": "error"
    },
    {
      "inputs": [
        {
          "internalType": "address",
          "name": "receiver",
          "type": "address"
        }
      ],
      "name": "ERC20InvalidReceiver",
      "type": "error"
    },
    {
      "inputs": [
        {
          "internalType": "address",
          "name": "sender",
          "type": "address"
        }
      ],
      "name": "ERC20InvalidSender",
      "type": "error"
    },
    {
      "inputs": [
        {
          "internalType": "address",
          "name": "spender",
          "type": "address"
        }
      ],
      "name": "ERC20InvalidSpender",
      "type": "error"
    },
    {
      "inputs": [
        {
          "internalType": "address",
          "name": "owner",
          "type": "address"
        }
      ],
      "name": "OwnableInvalidOwner",
      "type": "error"
    },
    {
      "inputs": [
        {
          "internalType": "address",
          "name": "account",
          "type": "address"
        }
      ],
      "name": "OwnableUnauthorizedAccount",
      "type": "error"
    },
    {
      "inputs": [],
      "name": "ReentrancyGuardReentrantCall",
      "type": "error"
    },
    {
      "anonymous": false,
      "inputs": [
        {
          "indexed": true,
          "internalType": "address",
          "name": "owner",
          "type": "address"
        },
        {
          "indexed": true,
          "internalType": "address",
          "name": "spender",
          "type": "address"
        },
        {
          "indexed": false,
          "internalType": "uint256",
          "name": "value",
          "type": "uint256"
        }
      ],
      "name": "Approval",
      "type": "event"
    },
    {
      "anonymous": false,
      "inputs": [
        {
          "indexed": true,
          "internalType": "address",
          "name": "spender",
          "type": "address"
        },
        {
          "indexed": false,
          "internalType": "bool",
          "name": "authorized",
          "type": "bool"
        }
      ],
      "name": "AuthorizedSpenderUpdated",
      "type": "event"
    },
    {
      "anonymous": false,
      "inputs": [
        {
          "indexed": false,
          "internalType": "uint256",
          "name": "newPrice",
          "type": "uint256"
        }
      ],
      "name": "CreditPriceUpdated",
      "type": "event"
    },
    {
      "anonymous": false,
      "inputs": [
        {
          "indexed": true,
          "internalType": "address",
          "name": "buyer",
          "type": "address"
        },
        {
          "indexed": false,
          "internalType": "uint256",
          "name": "amount",
          "type": "uint256"
        },
        {
          "indexed": false,
          "internalType": "uint256",
          "name": "cost",
          "type": "uint256"
        }
      ],
      "name": "CreditsPurchased",
      "type": "event"
    },
    {
      "anonymous": false,
      "inputs": [
        {
          "indexed": true,
          "internalType": "address",
          "name": "user",
          "type": "address"
        },
        {
          "indexed": false,
          "internalType": "uint256",
          "name": "amount",
          "type": "uint256"
        },
        {
          "indexed": false,
          "internalType": "string",
          "name": "reason",
          "type": "string"
        }
      ],
      "name": "CreditsSpent",
      "type": "event"
    },
    {
      "anonymous": false,
      "inputs": [
        {
          "indexed": true,
          "internalType": "address",
          "name": "user",
          "type": "address"
        },
        {
          "indexed": false,
          "internalType": "uint256",
          "name": "amount",
          "type": "uint256"
        }
      ],
      "name": "FreeTierClaimed",
      "type": "event"
    },
    {
      "anonymous": false,
      "inputs": [
        {
          "indexed": false,
          "internalType": "uint256",
          "name": "newAmount",
          "type": "uint256"
        }
      ],
      "name": "FreeTierCreditsUpdated",
      "type": "event"
    },
    {
      "anonymous": false,
      "inputs": [
        {
          "indexed": true,
          "internalType": "address",
          "name": "previousOwner",
          "type": "address"
        },
        {
          "indexed": true,
          "internalType": "address",
          "name": "newOwner",
          "type": "address"
        }
      ],
      "name": "OwnershipTransferred",
      "type": "event"
    },
    {
      "anonymous": false,
      "inputs": [
        {
          "indexed": true,
          "internalType": "uint256",
          "name": "planId",
          "type": "uint256"
        },
        {
          "indexed": false,
          "internalType": "uint256",
          "name": "credits",
          "type": "uint256"
        },
        {
          "indexed": false,
          "internalType": "uint256",
          "name": "price",
          "type": "uint256"
        },
        {
          "indexed": false,
          "internalType": "uint256",
          "name": "discountPercent",
          "type": "uint256"
        }
      ],
      "name": "PlanCreated",
      "type": "event"
    },
    {
      "anonymous": false,
      "inputs": [
        {
          "indexed": true,
          "internalType": "address",
          "name": "buyer",
          "type": "address"
        },
        {
          "indexed": true,
          "internalType": "uint256",
          "name": "planId",
          "type": "uint256"
        },
        {
          "indexed": false,
          "internalType": "uint256",
          "name": "credits",
          "type": "uint256"
        },
        {
          "indexed": false,
          "internalType": "uint256",
          "name": "cost",
          "type": "uint256"
        }
      ],
      "name": "PlanPurchased",
      "type": "event"
    },
    {
      "anonymous": false,
      "inputs": [
        {
          "indexed": true,
          "internalType": "uint256",
          "name": "planId",
          "type": "uint256"
        },
        {
          "indexed": false,
          "internalType": "bool",
          "name": "active",
          "type": "bool"
        }
      ],
      "name": "PlanStatusUpdated",
      "type": "event"
    },
    {
      "anonymous": false,
      "inputs": [
        {
          "indexed": true,
          "internalType": "address",
          "name": "user",
          "type": "address"
        },
        {
          "indexed": true,
          "internalType": "address",
          "name": "nftContract",
          "type": "address"
        },
        {
          "indexed": true,
          "internalType": "uint256",
          "name": "agentId",
          "type": "uint256"
        }
      ],
      "name": "SessionCreditUsed",
      "type": "event"
    },
    {
      "anonymous": false,
      "inputs": [
        {
          "indexed": true,
          "internalType": "address",
          "name": "user",
          "type": "address"
        },
        {
          "indexed": true,
          "internalType": "address",
          "name": "nftContract",
          "type": "address"
        },
        {
          "indexed": true,
          "internalType": "uint256",
          "name": "agentId",
          "type": "uint256"
        },
        {
          "indexed": false,
          "internalType": "uint256",
          "name": "amount",
          "type": "uint256"
        },
        {
          "indexed": false,
          "internalType": "uint256",
          "name": "cost",
          "type": "uint256"
        }
      ],
      "name": "SessionPurchased",
      "type": "event"
    },
    {
      "anonymous": false,
      "inputs": [
        {
          "indexed": true,
          "internalType": "address",
          "name": "from",
          "type": "address"
        },
        {
          "indexed": true,
          "internalType": "address",
          "name": "to",
          "type": "address"
        },
        {
          "indexed": false,
          "internalType": "uint256",
          "name": "value",
          "type": "uint256"
        }
      ],
      "name": "Transfer",
      "type": "event"
    },
    {
      "inputs": [
        {
          "internalType": "address",
          "name": "owner",
          "type": "address"
        },
        {
          "internalType": "address",
          "name": "spender",
          "type": "address"
        }
      ],
      "name": "allowance",
      "outputs": [
        {
          "internalType": "uint256",
          "name": "",
          "type": "uint256"
        }
      ],
      "stateMutability": "view",
      "type": "function"
    },
    {
      "inputs": [
        {
          "internalType": "address",
          "name": "spender",
          "type": "address"
        },
        {
          "internalType": "uint256",
          "name": "value",
          "type": "uint256"
        }
      ],
      "name": "approve",
      "outputs": [
        {
          "internalType": "bool",
          "name": "",
          "type": "bool"
        }
      ],
      "stateMutability": "nonpayable",
      "type": "function"
    },
    {
      "inputs": [
        {
          "internalType": "address",
          "name": "",
          "type": "address"
        }
      ],
      "name": "authorizedSpenders",
      "outputs": [
        {
          "internalType": "bool",
          "name": "",
          "type": "bool"
        }
      ],
      "stateMutability": "view",
      "type": "function"
    },
    {
      "inputs": [
        {
          "internalType": "address",
          "name": "account",
          "type": "address"
        }
      ],
      "name": "balanceOf",
      "outputs": [
        {
          "internalType": "uint256",
          "name": "",
          "type": "uint256"
        }
      ],
      "stateMutability": "view",
      "type": "function"
    },
    {
      "inputs": [],
      "name": "claimFreeTier",
      "outputs": [],
      "stateMutability": "nonpayable",
      "type": "function"
    },
    {
      "inputs": [
        {
          "internalType": "uint256",
          "name": "credits",
          "type": "uint256"
        },
        {
          "internalType": "uint256",
          "name": "price",
          "type": "uint256"
        },
        {
          "internalType": "uint256",
          "name": "discountPercent",
          "type": "uint256"
        }
      ],
      "name": "createPlan",
      "outputs": [],
      "stateMutability": "nonpayable",
      "type": "function"
    },
    {
      "inputs": [],
      "name": "creditPrice",
      "outputs": [
        {
          "internalType": "uint256",
          "name": "",
          "type": "uint256"
        }
      ],
      "stateMutability": "view",
      "type": "function"
    },
    {
      "inputs": [],
      "name": "decimals",
      "outputs": [
        {
          "internalType": "uint8",
          "name": "",
          "type": "uint8"
        }
      ],
      "stateMutability": "view",
      "type": "function"
    },
    {
      "inputs": [],
      "name": "freeTierCredits",
      "outputs": [
        {
          "internalType": "uint256",
          "name": "",
          "type": "uint256"
        }
      ],
      "stateMutability": "view",
      "type": "function"
    },
    {
      "inputs": [],
      "name": "getActivePlans",
      "outputs": [
        {
          "components": [
            {
              "internalType": "uint256",
              "name": "credits",
              "type": "uint256"
            },
            {
              "internalType": "uint256",
              "name": "price",
              "type": "uint256"
            },
            {
              "internalType": "uint256",
              "name": "discountPercent",
              "type": "uint256"
            },
            {
              "internalType": "bool",
              "name": "active",
              "type": "bool"
            }
          ],
          "internalType": "struct AgentCredits.CreditPlan[]",
          "name": "",
          "type": "tuple[]"
        }
      ],
      "stateMutability": "view",
      "type": "function"
    },
    {
      "inputs": [
        {
          "internalType": "uint256",
          "name": "planId",
          "type": "uint256"
        }
      ],
      "name": "getPlan",
      "outputs": [
        {
          "components": [
            {
              "internalType": "uint256",
              "name": "credits",
              "type": "uint256"
            },
            {
              "internalType": "uint256",
              "name": "price",
              "type": "uint256"
            },
            {
              "internalType": "uint256",
              "name": "discountPercent",
              "type": "uint256"
            },
            {
              "internalType": "bool",
              "name": "active",
              "type": "bool"
            }
          ],
          "internalType": "struct AgentCredits.CreditPlan",
          "name": "",
          "type": "tuple"
        }
      ],
      "stateMutability": "view",
      "type": "function"
    },
    {
      "inputs": [
        {
          "internalType": "address",
          "name": "user",
          "type": "address"
        },
        {
          "internalType": "address",
          "name": "nftContract",
          "type": "address"
        },
        {
          "internalType": "uint256",
          "name": "agentId",
          "type": "uint256"
        }
      ],
      "name": "getSessionCredits",
      "outputs": [
        {
          "internalType": "uint256",
          "name": "",
          "type": "uint256"
        }
      ],
      "stateMutability": "view",
      "type": "function"
    },
    {
      "inputs": [
        {
          "internalType": "address",
          "name": "user",
          "type": "address"
        }
      ],
      "name": "getUserCredits",
      "outputs": [
        {
          "internalType": "uint256",
          "name": "",
          "type": "uint256"
        }
      ],
      "stateMutability": "view",
      "type": "function"
    },
    {
      "inputs": [
        {
          "internalType": "address",
          "name": "",
          "type": "address"
        }
      ],
      "name": "hasClaimedFreeTier",
      "outputs": [
        {
          "internalType": "bool",
          "name": "",
          "type": "bool"
        }
      ],
      "stateMutability": "view",
      "type": "function"
    },
    {
      "inputs": [],
      "name": "name",
      "outputs": [
        {
          "internalType": "string",
          "name": "",
          "type": "string"
        }
      ],
      "stateMutability": "view",
      "type": "function"
    },
    {
      "inputs": [],
      "name": "owner",
      "outputs": [
        {
          "internalType": "address",
          "name": "",
          "type": "address"
        }
      ],
      "stateMutability": "view",
      "type": "function"
    },
    {
      "inputs": [],
      "name": "planCount",
      "outputs": [
        {
          "internalType": "uint256",
          "name": "",
          "type": "uint256"
        }
      ],
      "stateMutability": "view",
      "type": "function"
    },
    {
      "inputs": [
        {
          "internalType": "uint256",
          "name": "",
          "type": "uint256"
        }
      ],
      "name": "plans",
      "outputs": [
        {
          "internalType": "uint256",
          "name": "credits",
          "type": "uint256"
        },
        {
          "internalType": "uint256",
          "name": "price",
          "type": "uint256"
        },
        {
          "internalType": "uint256",
          "name": "discountPercent",
          "type": "uint256"
        },
        {
          "internalType": "bool",
          "name": "active",
          "type": "bool"
        }
      ],
      "stateMutability": "view",
      "type": "function"
    },
    {
      "inputs": [
        {
          "internalType": "uint256",
          "name": "amount",
          "type": "uint256"
        }
      ],
      "name": "purchaseCredits",
      "outputs": [],
      "stateMutability": "payable",
      "type": "function"
    },
    {
      "inputs": [
        {
          "internalType": "uint256",
          "name": "planId",
          "type": "uint256"
        }
      ],
      "name": "purchasePlan",
      "outputs": [],
      "stateMutability": "payable",
      "type": "function"
    },
    {
      "inputs": [
        {
          "internalType": "address",
          "name": "nftContract",
          "type": "address"
        },
        {
          "internalType": "uint256",
          "name": "agentId",
          "type": "uint256"
        }
      ],
      "name": "purchaseSession",
      "outputs": [],
      "stateMutability": "payable",
      "type": "function"
    },
    {
      "inputs": [],
      "name": "renounceOwnership",
      "outputs": [],
      "stateMutability": "nonpayable",
      "type": "function"
    },
    {
      "inputs": [],
      "name": "revenueShareContract",
      "outputs": [
        {
          "internalType": "address",
          "name": "",
          "type": "address"
        }
      ],
      "stateMutability": "view",
      "type": "function"
    },
    {
      "inputs": [
        {
          "internalType": "address",
          "name": "",
          "type": "address"
        },
        {
          "internalType": "address",
          "name": "",
          "type": "address"
        },
        {
          "internalType": "uint256",
          "name": "",
          "type": "uint256"
        }
      ],
      "name": "sessionCredits",
      "outputs": [
        {
          "internalType": "uint256",
          "name": "",
          "type": "uint256"
        }
      ],
      "stateMutability": "view",
      "type": "function"
    },
    {
      "inputs": [
        {
          "internalType": "address",
          "name": "spender",
          "type": "address"
        },
        {
          "internalType": "bool",
          "name": "authorized",
          "type": "bool"
        }
      ],
      "name": "setAuthorizedSpender",
      "outputs": [],
      "stateMutability": "nonpayable",
      "type": "function"
    },
    {
      "inputs": [
        {
          "internalType": "uint256",
          "name": "newPrice",
          "type": "uint256"
        }
      ],
      "name": "setCreditPrice",
      "outputs": [],
      "stateMutability": "nonpayable",
      "type": "function"
    },
    {
      "inputs": [
        {
          "internalType": "uint256",
          "name": "amount",
          "type": "uint256"
        }
      ],
      "name": "setFreeTierCredits",
      "outputs": [],
      "stateMutability": "nonpayable",
      "type": "function"
    },
    {
      "inputs": [
        {
          "internalType": "address",
          "name": "_revenueShareContract",
          "type": "address"
        }
      ],
      "name": "setRevenueShareContract",
      "outputs": [],
      "stateMutability": "nonpayable",
      "type": "function"
    },
    {
      "inputs": [
        {
          "internalType": "address",
          "name": "user",
          "type": "address"
        },
        {
          "internalType": "uint256",
          "name": "amount",
          "type": "uint256"
        },
        {
          "internalType": "string",
          "name": "reason",
          "type": "string"
        }
      ],
      "name": "spendCredits",
      "outputs": [],
      "stateMutability": "nonpayable",
      "type": "function"
    },
    {
      "inputs": [],
      "name": "symbol",
      "outputs": [
        {
          "internalType": "string",
          "name": "",
          "type": "string"
        }
      ],
      "stateMutability": "view",
      "type": "function"
    },
    {
      "inputs": [],
      "name": "totalSupply",
      "outputs": [
        {
          "internalType": "uint256",
          "name": "",
          "type": "uint256"
        }
      ],
      "stateMutability": "view",
      "type": "function"
    },
    {
      "inputs": [
        {
          "internalType": "address",
          "name": "to",
          "type": "address"
        },
        {
          "internalType": "uint256",
          "name": "value",
          "type": "uint256"
        }
      ],
      "name": "transfer",
      "outputs": [
        {
          "internalType": "bool",
          "name": "",
          "type": "bool"
        }
      ],
      "stateMutability": "nonpayable",
      "type": "function"
    },
    {
      "inputs": [
        {
          "internalType": "address",
          "name": "from",
          "type": "address"
        },
        {
          "internalType": "address",
          "name": "to",
          "type": "address"
        },
        {
          "internalType": "uint256",
          "name": "value",
          "type": "uint256"
        }
      ],
      "name": "transferFrom",
      "outputs": [
        {
          "internalType": "bool",
          "name": "",
          "type": "bool"
        }
      ],
      "stateMutability": "nonpayable",
      "type": "function"
    },
    {
      "inputs": [
        {
          "internalType": "address",
          "name": "newOwner",
          "type": "address"
        }
      ],
      "name": "transferOwnership",
      "outputs": [],
      "stateMutability": "nonpayable",
      "type": "function"
    },
    {
      "inputs": [
        {
          "internalType": "uint256",
          "name": "planId",
          "type": "uint256"
        },
        {
          "internalType": "bool",
          "name": "active",
          "type": "bool"
        }
      ],
      "name": "updatePlanStatus",
      "outputs": [],
      "stateMutability": "nonpayable",
      "type": "function"
    },
    {
      "inputs": [
        {
          "internalType": "address",
          "name": "user",
          "type": "address"
        },
        {
          "internalType": "address",
          "name": "nftContract",
          "type": "address"
        },
        {
          "internalType": "uint256",
          "name": "agentId",
          "type": "uint256"
        }
      ],
      "name": "useSessionCredit",
      "outputs": [],
      "stateMutability": "nonpayable",
      "type": "function"
    },
    {
      "inputs": [],
      "name": "withdraw",
      "outputs": [],
      "stateMutability": "nonpayable",
      "type": "function"
    }
  ],
  "transactionHash": "0xe7cbbefc95beee1249e3f96771f9250dd3062472758f11143bba7c3b346b070b",
  "args": [],
  "numDeployments": 1,
  "solcInputHash": "8f6036832917aa3a16ba6816e65757db",
  "bytecode": "0x6080604052655af3107a4000600755600a600c553480156200002057600080fd5b50336040518060400160405280600d81526020016c4167656e74204372656469747360981b815250604051806040016040528060058152602001641050d4915160da1b8152508160039081620000779190620002c2565b506004620000868282620002c2565b5050506001600160a01b038116620000b857604051631e4fbdf760e01b81526000600482015260240160405180910390fd5b620000c38162000113565b506001600655620000df6064661ff973cafa8000600a62000165565b620000f66101f4668e1bc9bf040000601462000165565b6200010d6103e866f8b0a10e470000601e62000165565b620003b6565b600580546001600160a01b038381166001600160a01b0319831681179093556040519116919082907f8be0079c531659141344cd1fd0a4f28419497f9722a3daafe3b4186f6b6457e090600090a35050565b60408051608081018252848152602080820185815282840185815260016060808601828152600a80546000908152600988528990209751885594519287019290925591516002860155516003909401805460ff1916941515949094179093555483518781529182018690529281018490527f8a6ea969ae0f21d98672dbcb40bc94aa208aba25a80f1386ab05cc9775d07ab4910160405180910390a2600a805490600062000213836200038e565b9190505550505050565b634e487b7160e01b600052604160045260246000fd5b600181811c908216806200024857607f821691505b6020821081036200026957634e487b7160e01b600052602260045260246000fd5b50919050565b601f821115620002bd57600081815260208120601f850160051c81016020861015620002985750805b601f850160051c820191505b81811015620002b957828155600101620002a4565b5050505b505050565b81516001600160401b03811115620002de57620002de6200021d565b620002f681620002ef845462000233565b846200026f565b602080601f8311600181146200032e5760008415620003155750858301515b600019600386901b1c1916600185901b178555620002b9565b600085815260208120601f198616915b828110156200035f578886015182559484019460019091019084016200033e565b50858210156200037e5787850151600019600388901b60f8161c191681555b5050505050600190811b01905550565b600060018201620003af57634e487b7160e01b600052601160045260246000fd5b5060010190565b6120cf80620003c66000396000f3fe60806040526004361061021a5760003560e01c80637838e40811610123578063b1620616116100ab578063d2454e8d1161006f578063d2454e8d14610683578063dd62ed3e146106b3578063f063432e146106f9578063f2fde38b1461070c578063fe5857c91461072c57600080fd5b8063b1620616146105b3578063b2b3c6701461061a578063b4a84c231461063a578063bef101fb1461065a578063ca6358cd1461066d57600080fd5b806395d89b41116100f257806395d89b41146104f05780639f71466f14610505578063a49b9dea14610543578063a9059cbb14610573578063ad17a0b31461059357600080fd5b80637838e408146104725780637ef56bd71461049257806381b26dda146104b25780638da5cb5b146104d257600080fd5b806330218df5116101a657806343fe832c1161017557806343fe832c146103d05780634aec7384146103f257806370a0823114610412578063715018a61461044857806372f451ea1461045d57600080fd5b806330218df514610373578063313ce56714610389578063382d39bb146103a55780633ccfd60b146103bb57600080fd5b8063116ab1f8116101ed578063116ab1f8146102d457806318160ddd146102f457806323b872dd1461031357806326cd5274146103335780632fb34d271461036057600080fd5b8063042f1ba71461021f57806306fdde0314610241578063095ea7b31461026c5780630a68c3d31461029c575b600080fd5b34801561022b57600080fd5b5061023f61023a366004611c83565b610779565b005b34801561024d57600080fd5b5061025661083c565b6040516102639190611cda565b60405180910390f35b34801561027857600080fd5b5061028c610287366004611d0d565b6108ce565b6040519015158152602001610263565b3480156102a857600080fd5b506008546102bc906001600160a01b031681565b6040516001600160a01b039091168152602001610263565b3480156102e057600080fd5b5061023f6102ef366004611d37565b6108e8565b34801561030057600080fd5b506002545b604051908152602001610263565b34801561031f57600080fd5b5061028c61032e366004611d50565b61092c565b34801561033f57600080fd5b5061035361034e366004611d37565b610950565b6040516102639190611d8c565b61023f61036e366004611d0d565b6109e8565b34801561037f57600080fd5b50610305600c5481565b34801561039557600080fd5b5060405160128152602001610263565b3480156103b157600080fd5b50610305600a5481565b3480156103c757600080fd5b5061023f610c84565b3480156103dc57600080fd5b506103e5610d8f565b6040516102639190611db9565b3480156103fe57600080fd5b5061023f61040d366004611e2a565b610f0d565b34801561041e57600080fd5b5061030561042d366004611e56565b6001600160a01b031660009081526020819052604090205490565b34801561045457600080fd5b5061023f610f25565b34801561046957600080fd5b5061023f610f37565b34801561047e57600080fd5b5061023f61048d366004611e78565b610ff8565b34801561049e57600080fd5b5061023f6104ad366004611d50565b611074565b3480156104be57600080fd5b506103056104cd366004611e56565b6111c3565b3480156104de57600080fd5b506005546001600160a01b03166102bc565b3480156104fc57600080fd5b506102566111e1565b34801561051157600080fd5b50610305610520366004611d50565b600b60209081526000938452604080852082529284528284209052825290205481565b34801561054f57600080fd5b5061028c61055e366004611e56565b600d6020526000908152604090205460ff1681565b34801561057f57600080fd5b5061028c61058e366004611d0d565b6111f0565b34801561059f57600080fd5b5061023f6105ae366004611d37565b6111fe565b3480156105bf57600080fd5b506105f86105ce366004611d37565b60096020526000908152604090208054600182015460028301546003909301549192909160ff1684565b6040805194855260208501939093529183015215156060820152608001610263565b34801561062657600080fd5b5061023f610635366004611e9b565b61128b565b34801561064657600080fd5b5061023f610655366004611e56565b6113a4565b61023f610668366004611d37565b6113ce565b34801561067957600080fd5b5061030560075481565b34801561068f57600080fd5b5061028c61069e366004611e56565b600e6020526000908152604090205460ff1681565b3480156106bf57600080fd5b506103056106ce366004611f22565b6001600160a01b03918216600090815260016020908152604080832093909416825291909152205490565b61023f610707366004611d37565b61156b565b34801561071857600080fd5b5061023f610727366004611e56565b611767565b34801561073857600080fd5b50610305610747366004611d50565b6001600160a01b039283166000908152600b602090815260408083209490951682529283528381209181529152205490565b6107816117a2565b6001600160a01b0382166107dc5760405162461bcd60e51b815260206004820152601760248201527f496e76616c6964207370656e646572206164647265737300000000000000000060448201526064015b60405180910390fd5b6001600160a01b0382166000818152600e6020908152604091829020805460ff191685151590811790915591519182527fcf0513c74b4d77095356357b35b5e34ac3424c008299b2cef0e805ee3c52327591015b60405180910390a25050565b60606003805461084b90611f4c565b80601f016020809104026020016040519081016040528092919081815260200182805461087790611f4c565b80156108c45780601f10610899576101008083540402835291602001916108c4565b820191906000526020600020905b8154815290600101906020018083116108a757829003601f168201915b5050505050905090565b6000336108dc8185856117cf565b60019150505b92915050565b6108f06117a2565b600c8190556040518181527fd09da095b16fb4041ee9258363e577c03abc77e5e723f6a9e84cacae9ed2c0ca906020015b60405180910390a150565b60003361093a8582856117dc565b61094585858561185b565b506001949350505050565b61097d60405180608001604052806000815260200160008152602001600081526020016000151581525090565b600a54821061099e5760405162461bcd60e51b81526004016107d390611f86565b5060009081526009602090815260409182902082516080810184528154815260018201549281019290925260028101549282019290925260039091015460ff161515606082015290565b6109f06118ba565b6001600160a01b038216610a3d5760405162461bcd60e51b8152602060048201526014602482015273125b9d985b1a59081391950818dbdb9d1c9858dd60621b60448201526064016107d3565b6611c37937e08000341015610aa65760405162461bcd60e51b815260206004820152602960248201527f496e73756666696369656e74207061796d656e742028302e303035204554482060448201526872657175697265642960b81b60648201526084016107d3565b6008546001600160a01b0316610afe5760405162461bcd60e51b815260206004820152601d60248201527f526576656e7565536861726520636f6e7472616374206e6f742073657400000060448201526064016107d3565b336000908152600b602090815260408083206001600160a01b038616845282528083208484529091528120805460329290610b3a908490611fc5565b909155505060085460405160248101839052600060448201819052916001600160a01b031690349060640160408051601f198184030181529181526020820180516001600160e01b0316635703a59960e01b17905251610b9a9190611fd8565b60006040518083038185875af1925050503d8060008114610bd7576040519150601f19603f3d011682016040523d82523d6000602084013e610bdc565b606091505b5050905080610c2d5760405162461bcd60e51b815260206004820152601960248201527f526576656e756520666f7277617264696e67206661696c65640000000000000060448201526064016107d3565b604080516032815234602082015283916001600160a01b0386169133917fadba1ab61f271068e33763335a05f2da703f3a12910acdf338ecb4aef09fb3ca910160405180910390a450610c806001600655565b5050565b610c8c6117a2565b610c946118ba565b4780610cd95760405162461bcd60e51b81526020600482015260146024820152734e6f2066756e647320746f20776974686472617760601b60448201526064016107d3565b6000610ced6005546001600160a01b031690565b6001600160a01b03168260405160006040518083038185875af1925050503d8060008114610d37576040519150601f19603f3d011682016040523d82523d6000602084013e610d3c565b606091505b5050905080610d815760405162461bcd60e51b815260206004820152601160248201527015da5d1a191c985dd85b0819985a5b1959607a1b60448201526064016107d3565b5050610d8d6001600655565b565b60606000805b600a54811015610dd95760008181526009602052604090206003015460ff1615610dc75781610dc381611ff4565b9250505b80610dd181611ff4565b915050610d95565b5060008167ffffffffffffffff811115610df557610df561200d565b604051908082528060200260200182016040528015610e5357816020015b610e4060405180608001604052806000815260200160008152602001600081526020016000151581525090565b815260200190600190039081610e135790505b5090506000805b600a54811015610f045760008181526009602052604090206003015460ff1615610ef25760008181526009602090815260409182902082516080810184528154815260018201549281019290925260028101549282019290925260039091015460ff16151560608201528351849084908110610ed857610ed8612023565b60200260200101819052508180610eee90611ff4565b9250505b80610efc81611ff4565b915050610e5a565b50909392505050565b610f156117a2565b610f208383836118e4565b505050565b610f2d6117a2565b610d8d600061199a565b336000908152600d602052604090205460ff1615610f975760405162461bcd60e51b815260206004820152601960248201527f46726565207469657220616c726561647920636c61696d65640000000000000060448201526064016107d3565b336000818152600d60205260409020805460ff19166001179055600c54610fbe91906119ec565b600c5460405190815233907ffddbc945ed230bef53422588295b9119e788c7c4ac862b8ef509476bb1f706f79060200160405180910390a2565b6110006117a2565b600a5482106110215760405162461bcd60e51b81526004016107d390611f86565b600082815260096020908152604091829020600301805460ff1916841515908117909155915191825283917f15b0eb0a41fee4f159e47b8f90c792d99333da7ad30bacceeeb3d079df2219219101610830565b336000908152600e602052604090205460ff166110c45760405162461bcd60e51b815260206004820152600e60248201526d139bdd08185d5d1a1bdc9a5e995960921b60448201526064016107d3565b6001600160a01b038084166000908152600b6020908152604080832093861683529281528282208483529052205461113e5760405162461bcd60e51b815260206004820152601c60248201527f496e73756666696369656e742073657373696f6e20637265646974730000000060448201526064016107d3565b6001600160a01b038084166000908152600b602090815260408083209386168352928152828220848352905290812080546001929061117e908490612039565b909155505060405181906001600160a01b0380851691908616907fffdda9342b19a981f7017e66a940401ef0e8ef6c80e1a6649e58cb0715e886f390600090a4505050565b6001600160a01b0381166000908152602081905260408120546108e2565b60606004805461084b90611f4c565b6000336108dc81858561185b565b6112066117a2565b600081116112565760405162461bcd60e51b815260206004820152601c60248201527f5072696365206d7573742062652067726561746572207468616e20300000000060448201526064016107d3565b60078190556040518181527ff3dc8c839413923ee5e4d2fe6bf9ea73e033510bbd8317a1b92d6a923d5a9cb490602001610921565b336000908152600e602052604090205460ff166112ea5760405162461bcd60e51b815260206004820152601f60248201527f4e6f7420617574686f72697a656420746f207370656e6420637265646974730060448201526064016107d3565b8261130a856001600160a01b031660009081526020819052604090205490565b101561134f5760405162461bcd60e51b8152602060048201526014602482015273496e73756666696369656e74206372656469747360601b60448201526064016107d3565b6113598484611a22565b836001600160a01b03167f74d7e652d5a6262736d3926e1a0c0b55b85e2de65a5859a1ff55267e33cd20d48484846040516113969392919061204c565b60405180910390a250505050565b6113ac6117a2565b600880546001600160a01b0319166001600160a01b0392909216919091179055565b6113d66118ba565b600081116114265760405162461bcd60e51b815260206004820152601d60248201527f416d6f756e74206d7573742062652067726561746572207468616e203000000060448201526064016107d3565b6000600754826114369190612082565b90508034101561147f5760405162461bcd60e51b8152602060048201526014602482015273125b9cdd59999a58da595b9d081c185e5b595b9d60621b60448201526064016107d3565b61148933836119ec565b803411156115225760003361149e8334612039565b604051600081818185875af1925050503d80600081146114da576040519150601f19603f3d011682016040523d82523d6000602084013e6114df565b606091505b50509050806115205760405162461bcd60e51b815260206004820152600d60248201526c1499599d5b990819985a5b1959609a1b60448201526064016107d3565b505b604080518381526020810183905233917ffb82fc1c5adf84899709e87563b69dd5f4ac33320f1c60dbca744bec717eb90f910160405180910390a2506115686001600655565b50565b6115736118ba565b600a5481106115945760405162461bcd60e51b81526004016107d390611f86565b60008181526009602090815260409182902082516080810184528154815260018201549281019290925260028101549282019290925260039091015460ff1615156060820181905261161d5760405162461bcd60e51b8152602060048201526012602482015271506c616e206973206e6f742061637469766560701b60448201526064016107d3565b80602001513410156116685760405162461bcd60e51b8152602060048201526014602482015273125b9cdd59999a58da595b9d081c185e5b595b9d60621b60448201526064016107d3565b6116763382600001516119ec565b806020015134111561171a57602081015160009033906116969034612039565b604051600081818185875af1925050503d80600081146116d2576040519150601f19603f3d011682016040523d82523d6000602084013e6116d7565b606091505b50509050806117185760405162461bcd60e51b815260206004820152600d60248201526c1499599d5b990819985a5b1959609a1b60448201526064016107d3565b505b80516020808301516040805193845291830152839133917fbf8fafb673ff47e19af2d0354b6642c45e316a2b0fec3700ef3d195bf112a684910160405180910390a3506115686001600655565b61176f6117a2565b6001600160a01b03811661179957604051631e4fbdf760e01b8152600060048201526024016107d3565b6115688161199a565b6005546001600160a01b03163314610d8d5760405163118cdaa760e01b81523360048201526024016107d3565b610f208383836001611a58565b6001600160a01b03838116600090815260016020908152604080832093861683529290522054600019811015611855578181101561184657604051637dc7a0d960e11b81526001600160a01b038416600482015260248101829052604481018390526064016107d3565b61185584848484036000611a58565b50505050565b6001600160a01b03831661188557604051634b637e8f60e11b8152600060048201526024016107d3565b6001600160a01b0382166118af5760405163ec442f0560e01b8152600060048201526024016107d3565b610f20838383611b2d565b6002600654036118dd57604051633ee5aeb560e01b815260040160405180910390fd5b6002600655565b60408051608081018252848152602080820185815282840185815260016060808601828152600a80546000908152600988528990209751885594519287019290925591516002860155516003909401805460ff1916941515949094179093555483518781529182018690529281018490527f8a6ea969ae0f21d98672dbcb40bc94aa208aba25a80f1386ab05cc9775d07ab4910160405180910390a2600a805490600061199083611ff4565b9190505550505050565b600580546001600160a01b038381166001600160a01b0319831681179093556040519116919082907f8be0079c531659141344cd1fd0a4f28419497f9722a3daafe3b4186f6b6457e090600090a35050565b6001600160a01b038216611a165760405163ec442f0560e01b8152600060048201526024016107d3565b610c8060008383611b2d565b6001600160a01b038216611a4c57604051634b637e8f60e11b8152600060048201526024016107d3565b610c8082600083611b2d565b6001600160a01b038416611a825760405163e602df0560e01b8152600060048201526024016107d3565b6001600160a01b038316611aac57604051634a1406b160e11b8152600060048201526024016107d3565b6001600160a01b038085166000908152600160209081526040808320938716835292905220829055801561185557826001600160a01b0316846001600160a01b03167f8c5be1e5ebec7d5bd14f71427d1e84f3dd0314c0f7b2291e5b200ac8c7c3b92584604051611b1f91815260200190565b60405180910390a350505050565b6001600160a01b038316611b58578060026000828254611b4d9190611fc5565b90915550611bca9050565b6001600160a01b03831660009081526020819052604090205481811015611bab5760405163391434e360e21b81526001600160a01b038516600482015260248101829052604481018390526064016107d3565b6001600160a01b03841660009081526020819052604090209082900390555b6001600160a01b038216611be657600280548290039055611c05565b6001600160a01b03821660009081526020819052604090208054820190555b816001600160a01b0316836001600160a01b03167fddf252ad1be2c89b69c2b068fc378daa952ba7f163c4a11628f55a4df523b3ef83604051611c4a91815260200190565b60405180910390a3505050565b80356001600160a01b0381168114611c6e57600080fd5b919050565b80358015158114611c6e57600080fd5b60008060408385031215611c9657600080fd5b611c9f83611c57565b9150611cad60208401611c73565b90509250929050565b60005b83811015611cd1578181015183820152602001611cb9565b50506000910152565b6020815260008251806020840152611cf9816040850160208701611cb6565b601f01601f19169190910160400192915050565b60008060408385031215611d2057600080fd5b611d2983611c57565b946020939093013593505050565b600060208284031215611d4957600080fd5b5035919050565b600080600060608486031215611d6557600080fd5b611d6e84611c57565b9250611d7c60208501611c57565b9150604084013590509250925092565b815181526020808301519082015260408083015190820152606080830151151590820152608081016108e2565b6020808252825182820181905260009190848201906040850190845b81811015611e1e57611e0b8385518051825260208101516020830152604081015160408301526060810151151560608301525050565b9284019260809290920191600101611dd5565b50909695505050505050565b600080600060608486031215611e3f57600080fd5b505081359360208301359350604090920135919050565b600060208284031215611e6857600080fd5b611e7182611c57565b9392505050565b60008060408385031215611e8b57600080fd5b82359150611cad60208401611c73565b60008060008060608587031215611eb157600080fd5b611eba85611c57565b935060208501359250604085013567ffffffffffffffff80821115611ede57600080fd5b818701915087601f830112611ef257600080fd5b813581811115611f0157600080fd5b886020828501011115611f1357600080fd5b95989497505060200194505050565b60008060408385031215611f3557600080fd5b611f3e83611c57565b9150611cad60208401611c57565b600181811c90821680611f6057607f821691505b602082108103611f8057634e487b7160e01b600052602260045260246000fd5b50919050565b6020808252600f908201526e125b9d985b1a59081c1b185b881251608a1b604082015260600190565b634e487b7160e01b600052601160045260246000fd5b808201808211156108e2576108e2611faf565b60008251611fea818460208701611cb6565b9190910192915050565b60006001820161200657612006611faf565b5060010190565b634e487b7160e01b600052604160045260246000fd5b634e487b7160e01b600052603260045260246000fd5b818103818111156108e2576108e2611faf565b83815260406020820152816040820152818360608301376000818301606090810191909152601f909201601f1916010192915050565b80820281158282048414176108e2576108e2611faf56fea2646970667358221220605e902ff171f792ddc9f6efa5a393cf449d9cb799ae7f33334e789bee08bf9c64736f6c63430008140033",
  "devdoc": {
    "details": "ERC20 token for AI Agent chat credits system",
    "errors": {
      "ERC20InsufficientAllowance(address,uint256,uint256)": [
        {
          "details": "Indicates a failure with the `spender`’s `allowance`. Used in transfers.",
          "params": {
            "allowance": "Amount of tokens a `spender` is allowed to operate with.",
            "needed": "Minimum amount required to perform a transfer.",
            "spender": "Address that may be allowed to operate on tokens without being their owner."
          }
        }
      ],
      "ERC20InsufficientBalance(address,uint256,uint256)": [
        {
          "details": "Indicates an error related to the current `balance` of a `sender`. Used in transfers.",
          "params": {
            "balance": "Current balance for the interacting account.",
            "needed": "Minimum amount required to perform a transfer.",
            "sender": "Address whose tokens are being transferred."
          }
        }
      ],
      "ERC20InvalidApprover(address)": [
        {
          "details": "Indicates a failure with the `approver` of a token to be approved. Used in approvals.",
          "params": {
            "approver": "Address initiating an approval operation."
          }
        }
      ],
      "ERC20InvalidReceiver(address)": [
        {
          "details": "Indicates a failure with the token `receiver`. Used in transfers.",
          "params": {
            "receiver": "Address to which tokens are being transferred."
          }
        }
      ],
      "ERC20InvalidSender(address)": [
        {
          "details": "Indicates a failure with the token `sender`. Used in transfers.",
          "params": {
            "sender": "Address whose tokens are being transferred."
          }
        }
      ],
      "ERC20InvalidSpender(address)": [
        {
          "details": "Indicates a failure with the `spender` to be approved. Used in approvals.",
          "params": {
            "spender": "Address that may be allowed to operate on tokens without being their owner."
          }
        }
      ],
      "OwnableInvalidOwner(address)": [
        {
          "details": "The owner is not a valid owner account. (eg. `address(0)`)"
        }
      ],
      "OwnableUnauthorizedAccount(address)": [
        {
          "details": "The caller account is not authorized to perform an operation."
        }
      ],
      "ReentrancyGuardReentrantCall()": [
        {
          "details": "Unauthorized reentrant call."
        }
      ]
    },
    "events": {
      "Approval(address,address,uint256)": {
        "details": "Emitted when the allowance of a `spender` for an `owner` is set by a call to {approve}. `value` is the new allowance."
      },
      "Transfer(address,address,uint256)": {
        "details": "Emitted when `value` tokens are moved from one account (`from`) to another (`to`). Note that `value` may be zero."
      }
    },
    "kind": "dev",
    "methods": {
      "allowance(address,address)": {
        "details": "Returns the remaining number of tokens that `spender` will be allowed to spend on behalf of `owner` through {transferFrom}. This is zero by default. This value changes when {approve} or {transferFrom} are called."
      },
      "approve(address,uint256)": {
        "details": "See {IERC20-approve}. NOTE: If `value` is the maximum `uint256`, the allowance is not updated on `transferFrom`. This is semantically equivalent to an infinite approval. Requirements: - `spender` cannot be the zero address."
      },
      "balanceOf(address)": {
        "details": "Returns the value of tokens owned by `account`."
      },
      "claimFreeTier()": {
        "details": "Claim free tier credits (once per user)"
      },
      "createPlan(uint256,uint256,uint256)": {
        "details": "Create a new subscription plan (only owner)"
      },
      "decimals()": {
        "details": "Returns the number of decimals used to get its user representation. For example, if `decimals` equals `2`, a balance of `505` tokens should be displayed to a user as `5.05` (`505 / 10 ** 2`). Tokens usually opt for a value of 18, imitating the relationship between Ether and Wei. This is the default value returned by this function, unless it's overridden. NOTE: This information is only used for _display_ purposes: it in no way affects any of the arithmetic of the contract, including {IERC20-balanceOf} and {IERC20-transfer}."
      },
      "getActivePlans()": {
        "details": "Get all active plans"
      },
      "getPlan(uint256)": {
        "details": "Get plan details"
      },
      "getSessionCredits(address,address,uint256)": {
        "details": "Get session credits for a user/agent",
        "params": {
          "agentId": "The agent token ID",
          "nftContract": "The NFT contract address",
          "user": "The user address"
        }
      },
      "getUserCredits(address)": {
        "details": "Get user's credit balance"
      },
      "name()": {
        "details": "Returns the name of the token."
      },
      "owner()": {
        "details": "Returns the address of the current owner."
      },
      "purchaseCredits(uint256)": {
        "details": "Purchase credits with ETH"
      },
      "purchasePlan(uint256)": {
        "details": "Purchase a credit plan (bulk purchase with discount)"
      },
      "purchaseSession(address,uint256)": {
        "details": "Purchase a session pack (50 credits) for an agent Forwards payment to RevenueShare contract",
        "params": {
          "agentId": "The agent token ID",
          "nftContract": "The NFT contract address"
        }
      },
      "renounceOwnership()": {
        "details": "Leaves the contract without owner. It will not be possible to call `onlyOwner` functions. Can only be called by the current owner. NOTE: Renouncing ownership will leave the contract without an owner, thereby disabling any functionality that is only available to the owner."
      },
      "setAuthorizedSpender(address,bool)": {
        "details": "Authorize spender (backend service) (only owner)"
      },
      "setCreditPrice(uint256)": {
        "details": "Update credit price (only owner)"
      },
      "setFreeTierCredits(uint256)": {
        "details": "Update free tier credits (only owner)"
      },
      "setRevenueShareContract(address)": {
        "details": "Set RevenueShare contract address"
      },
      "spendCredits(address,uint256,string)": {
        "details": "Spend credits (only authorized spenders - backend service)"
      },
      "symbol()": {
        "details": "Returns the symbol of the token, usually a shorter version of the name."
      },
      "totalSupply()": {
        "details": "Returns the value of tokens in existence."
      },
      "transfer(address,uint256)": {
        "details": "See {IERC20-transfer}. Requirements: - `to` cannot be the zero address. - the caller must have a balance of at least `value`."
      },
      "transferFrom(address,address,uint256)": {
        "details": "See {IERC20-transferFrom}. Skips emitting an {Approval} event indicating an allowance update. This is not required by the ERC. See {xref-ERC20-_approve-address-address-uint256-bool-}[_approve]. NOTE: Does not update the allowance if the current allowance is the maximum `uint256`. Requirements: - `from` and `to` cannot be the zero address. - `from` must have a balance of at least `value`. - the caller must have allowance for ``from``'s tokens of at least `value`."
      },
      "transferOwnership(address)": {
        "details": "Transfers ownership of the contract to a new account (`newOwner`). Can only be called by the current owner."
      },
      "updatePlanStatus(uint256,bool)": {
        "details": "Update plan status (only owner)"
      },
      "useSessionCredit(address,address,uint256)": {
        "details": "Use a session credit (only authorized spenders - backend service)",
        "params": {
          "agentId": "The agent token ID",
          "nftContract": "The NFT contract address",
          "user": "The user address"
        }
      },
      "withdraw()": {
        "details": "Withdraw accumulated ETH (only owner)"
      }
    },
    "title": "AgentCredits",
    "version": 1
  },
  "userdoc": {
    "kind": "user",
    "methods": {},
    "version": 1
  },
  "storageLayout": {
    "storage": [
      {
        "astId": 339,
        "contract": "contracts/AgentCredits.sol:AgentCredits",
        "label": "_balances",
        "offset": 0,
        "slot": "0",
        "type": "t_mapping(t_address,t_uint256)"
      },
      {
        "astId": 345,
        "contract": "contracts/AgentCredits.sol:AgentCredits",
        "label": "_allowances",
        "offset": 0,
        "slot": "1",
        "type": "t_mapping(t_address,t_mapping(t_address,t_uint256))"
      },
      {
        "astId": 347,
        "contract": "contracts/AgentCredits.sol:AgentCredits",
        "label": "_totalSupply",
        "offset": 0,
        "slot": "2",
        "type": "t_uint256"
      },
      {
        "astId": 349,
        "contract": "contracts/AgentCredits.sol:AgentCredits",
        "label": "_name",
        "offset": 0,
        "slot": "3",
        "type": "t_string_storage"
      },
      {
        "astId": 351,
        "contract": "contracts/AgentCredits.sol:AgentCredits",
        "label": "_symbol",
        "offset": 0,
        "slot": "4",
        "type": "t_string_storage"
      },
      {
        "astId": 8,
        "contract": "contracts/AgentCredits.sol:AgentCredits",
        "label": "_owner",
        "offset": 0,
        "slot": "5",
        "type": "t_address"
      },
      {
        "astId": 2353,
        "contract": "contracts/AgentCredits.sol:AgentCredits",
        "label": "_status",
        "offset": 0,
        "slot": "6",
        "type": "t_uint256"
      },
      {
        "astId": 7394,
        "contract": "contracts/AgentCredits.sol:AgentCredits",
        "label": "creditPrice",
        "offset": 0,
        "slot": "7",
        "type": "t_uint256"
      },
      {
        "astId": 7396,
        "contract": "contracts/AgentCredits.sol:AgentCredits",
        "label": "revenueShareContract",
        "offset": 0,
        "slot": "8",
        "type": "t_address"
      },
      {
        "astId": 7410,
        "contract": "contracts/AgentCredits.sol:AgentCredits",
        "label": "plans",
        "offset": 0,
        "slot": "9",
        "type": "t_mapping(t_uint256,t_struct(CreditPlan)7405_storage)"
      },
      {
        "astId": 7412,
        "contract": "contracts/AgentCredits.sol:AgentCredits",
        "label": "planCount",
        "offset": 0,
        "slot": "10",
        "type": "t_uint256"
      },
      {
        "astId": 7420,
        "contract": "contracts/AgentCredits.sol:AgentCredits",
        "label": "sessionCredits",
        "offset": 0,
        "slot": "11",
        "type": "t_mapping(t_address,t_mapping(t_address,t_mapping(t_uint256,t_uint256)))"
      },
      {
        "astId": 7423,
        "contract": "contracts/AgentCredits.sol:AgentCredits",
        "label": "freeTierCredits",
        "offset": 0,
        "slot": "12",
        "type": "t_uint256"
      },
      {
        "astId": 7427,
        "contract": "contracts/AgentCredits.sol:AgentCredits",
        "label": "hasClaimedFreeTier",
        "offset": 0,
        "slot": "13",
        "type": "t_mapping(t_address,t_bool)"
      },
      {
        "astId": 7431,
        "contract": "contracts/AgentCredits.sol:AgentCredits",
        "label": "authorizedSpenders",
        "offset": 0,
        "slot": "14",
        "type": "t_mapping(t_address,t_bool)"
      }
    ],
    "types": {
      "t_address": {
        "encoding": "inplace",
        "label": "address",
        "numberOfBytes": "20"
      },
      "t_bool": {
        "encoding": "inplace",
        "label": "bool",
        "numberOfBytes": "1"
      },
      "t_mapping(t_address,t_bool)": {
        "encoding": "mapping",
        "key": "t_address",
        "label": "mapping(address => bool)",
        "numberOfBytes": "32",
        "value": "t_bool"
      },
      "t_mapping(t_address,t_mapping(t_address,t_mapping(t_uint256,t_uint256)))": {
        "encoding": "mapping",
        "key": "t_address",
        "label": "mapping(address => mapping(address => mapping(uint256 => uint256)))",
        "numberOfBytes": "32",
        "value": "t_mapping(t_address,t_mapping(t_uint256,t_uint256))"
      },
      "t_mapping(t_address,t_mapping(t_address,t_uint256))": {
        "encoding": "mapping",
        "key": "t_address",
        "label": "mapping(address => mapping(address => uint256))",
        "numberOfBytes": "32",
        "value": "t_mapping(t_address,t_uint256)"
      },
      "t_mapping(t_address,t_mapping(t_uint256,t_uint256))": {
        "encoding": "mapping",
        "key": "t_address",
        "label": "mapping(address => mapping(uint256 => uint256))",
        "numberOfBytes": "32",
        "value": "t_mapping(t_uint256,t_uint256)"
      },
      "t_mapping(t_address,t_uint256)": {
        "encoding": "mapping",
        "key": "t_address",
        "label": "mapping(address => uint256)",
        "numberOfBytes": "32",
        "value": "t_uint256"
      },
      "t_mapping(t_uint256,t_struct(CreditPlan)7405_storage)": {
        "encoding": "mapping",
        "key": "t_uint256",
        "label": "mapping(uint256 => struct AgentCredits.CreditPlan)",
        "numberOfBytes": "32",
        "value": "t_struct(CreditPlan)7405_storage"
      },
      "t_mapping(t_uint256,t_uint256)": {
        "encoding": "mapping",
        "key": "t_uint256",
        "label": "mapping(uint256 => uint256)",
        "numberOfBytes": "32",
        "value": "t_uint256"
      },
      "t_string_storage": {
        "encoding": "bytes",
        "label": "string",
        "numberOfBytes": "32"
      },
      "t_struct(CreditPlan)7405_storage": {
        "encoding": "inplace",
        "label": "struct AgentCredits.CreditPlan",
        "members": [
          {
            "astId": 7398,
            "contract": "contracts/AgentCredits.sol:AgentCredits",
            "label": "credits",
            "offset": 0,
            "slot": "0",
            "type": "t_uint256"
          },
          {
            "astId": 7400,
            "contract": "contracts/AgentCredits.sol:AgentCredits",
            "label": "price",
            "offset": 0,
            "slot": "1",
            "type": "t_uint256"
          },
          {
            "astId": 7402,
            "contract": "contracts/AgentCredits.sol:AgentCredits",
            "label": "discountPercent",
            "offset": 0,
            "slot": "2",
            "type": "t_uint256"
          },
          {
            "astId": 7404,
            "contract": "contracts/AgentCredits.sol:AgentCredits",
            "label": "active",
            "offset": 0,
            "slot": "3",
            "type": "t_bool"
          }
        ],
        "numberOfBytes": "128"
      },
      "t_uint256": {
        "encoding": "inplace",
        "label": "uint256",
        "numberOfBytes": "32"
      }
    }
  }
}